Component: ARM Compiler 5.05 update 2 (build 169) Tool: armlink [4d0f33]

==============================================================================

Section Cross References

    startup_stm32f427xx.o(STACK) refers (Special) to heapauxi.o(.text) for __use_two_region_memory
    startup_stm32f427xx.o(HEAP) refers (Special) to heapauxi.o(.text) for __use_two_region_memory
    startup_stm32f427xx.o(RESET) refers (Special) to heapauxi.o(.text) for __use_two_region_memory
    startup_stm32f427xx.o(RESET) refers to startup_stm32f427xx.o(STACK) for __initial_sp
    startup_stm32f427xx.o(RESET) refers to startup_stm32f427xx.o(.text) for Reset_Handler
    startup_stm32f427xx.o(RESET) refers to stm32f4xx_it.o(i.NMI_Handler) for NMI_Handler
    startup_stm32f427xx.o(RESET) refers to stm32f4xx_it.o(i.HardFault_Handler) for HardFault_Handler
    startup_stm32f427xx.o(RESET) refers to stm32f4xx_it.o(i.MemManage_Handler) for MemManage_Handler
    startup_stm32f427xx.o(RESET) refers to stm32f4xx_it.o(i.BusFault_Handler) for BusFault_Handler
    startup_stm32f427xx.o(RESET) refers to stm32f4xx_it.o(i.UsageFault_Handler) for UsageFault_Handler
    startup_stm32f427xx.o(RESET) refers to port.o(.emb_text) for SVC_Handler
    startup_stm32f427xx.o(RESET) refers to stm32f4xx_it.o(i.DebugMon_Handler) for DebugMon_Handler
    startup_stm32f427xx.o(RESET) refers to freertos_middleware.o(i.SysTick_Handler) for SysTick_Handler
    startup_stm32f427xx.o(RESET) refers to can_receive.o(i.CAN1_RX0_IRQHandler) for CAN1_RX0_IRQHandler
    startup_stm32f427xx.o(RESET) refers to ins_task.o(i.EXTI9_5_IRQHandler) for EXTI9_5_IRQHandler
    startup_stm32f427xx.o(RESET) refers to freertos_middleware.o(i.TIM3_IRQHandler) for TIM3_IRQHandler
    startup_stm32f427xx.o(RESET) refers to remote_control.o(i.USART1_IRQHandler) for USART1_IRQHandler
    startup_stm32f427xx.o(RESET) refers to can_receive.o(i.TIM6_DAC_IRQHandler) for TIM6_DAC_IRQHandler
==============================================================================

Removing Unused input sections from the image.

    Removing stm32f4xx_it.o(.rev16_text), (4 bytes).
    Removing stm32f4xx_it.o(.revsh_text), (4 bytes).
    Removing stm32f4xx_it.o(.rrx_text), (6 bytes).
    Removing system_stm32f4xx.o(.rev16_text), (4 bytes).
    Removing system_stm32f4xx.o(.revsh_text), (4 bytes).
    Removing system_stm32f4xx.o(.rrx_text), (6 bytes).
    Removing system_stm32f4xx.o(i.SystemCoreClockUpdate), (192 bytes).
    Removing misc.o(.rev16_text), (4 bytes).
    Removing misc.o(.revsh_text), (4 bytes).
    Removing misc.o(.rrx_text), (6 bytes).
    Removing misc.o(i.NVIC_SetVectorTable), (20 bytes).
    Removing misc.o(i.NVIC_SystemLPConfig), (32 bytes).
    Removing stm32f4xx_adc.o(.rev16_text), (4 bytes).
    Removing stm32f4xx_adc.o(.revsh_text), (4 bytes).
    Removing stm32f4xx_adc.o(.rrx_text), (6 bytes).
    Removing stm32f4xx_adc.o(i.ADC_AnalogWatchdogCmd), (20 bytes).
    Removing stm32f4xx_adc.o(i.ADC_AnalogWatchdogSingleChannelConfig), (16 bytes).
    Removing stm32f4xx_adc.o(i.ADC_AnalogWatchdogThresholdsConfig), (6 bytes).
==============================================================================

Image Symbol Table

    Local Symbols

    Symbol Name                              Value     Ov Type        Size  Object(Section)

    ../clib/angel/boardlib.s                 0x00000000   Number         0  boardinit2.o ABSOLUTE
    ../clib/angel/boardlib.s                 0x00000000   Number         0  boardinit1.o ABSOLUTE
    ../clib/angel/boardlib.s                 0x00000000   Number         0  boardinit3.o ABSOLUTE
    ../clib/angel/boardlib.s                 0x00000000   Number         0  boardshut.o ABSOLUTE
    ../clib/angel/dczerorl2.s                0x00000000   Number         0  __dczerorl2.o ABSOLUTE
    ../clib/angel/handlers.s                 0x00000000   Number         0  __scatter_zi.o ABSOLUTE
    ../clib/angel/kernel.s                   0x00000000   Number         0  __rtentry.o ABSOLUTE
    ../clib/angel/kernel.s                   0x00000000   Number         0  rtexit2.o ABSOLUTE
    ../clib/angel/kernel.s                   0x00000000   Number         0  __rtentry2.o ABSOLUTE
    ../clib/angel/kernel.s                   0x00000000   Number         0  __rtentry4.o ABSOLUTE
    ../clib/angel/kernel.s                   0x00000000   Number         0  rtexit.o ABSOLUTE
    ../clib/angel/rt.s                       0x00000000   Number         0  rt_errno_addr_intlibspace.o ABSOLUTE
    ../clib/angel/rt.s                       0x00000000   Number         0  rt_errno_addr.o ABSOLUTE
    ../clib/angel/rt.s                       0x00000000   Number         0  rt_raise.o ABSOLUTE
    ../clib/angel/scatter.s                  0x00000000   Number         0  __scatter.o ABSOLUTE
    ../clib/angel/startup.s                  0x00000000   Number         0  __main.o ABSOLUTE
    ../clib/angel/sys.s                      0x00000000   Number         0  sys_stackheap_outer.o ABSOLUTE
    ../clib/angel/sys.s                      0x00000000   Number         0  libspace.o ABSOLUTE
    ../clib/angel/sys.s                      0x00000000   Number         0  use_no_semi.o ABSOLUTE
    ../clib/angel/sys.s                      0x00000000   Number         0  indicate_semi.o ABSOLUTE
    ../clib/angel/sysapp.c                   0x00000000   Number         0  sys_exit.o ABSOLUTE
    ../clib/angel/sysapp.c                   0x00000000   Number         0  sys_wrch.o ABSOLUTE
    ../clib/angel/sysapp.c                   0x00000000   Number         0  sys_command.o ABSOLUTE
    ../clib/armsys.c                         0x00000000   Number         0  no_argv.o ABSOLUTE
    ../clib/armsys.c                         0x00000000   Number         0  _get_argv_nomalloc.o ABSOLUTE
    ../clib/armsys.c                         0x00000000   Number         0  argv_veneer.o ABSOLUTE
    ../clib/armsys.c                         0x00000000   Number         0  argv_veneer.o ABSOLUTE
    ../clib/fenv.c                           0x00000000   Number         0  _rserrno.o ABSOLUTE
    ../clib/fenv.c                           0x00000000   Number         0  _fptrap.o ABSOLUTE
    ../clib/heapalloc.c                      0x00000000   Number         0  hrguard.o ABSOLUTE
    ../clib/heapaux.c                        0x00000000   Number         0  heapauxi.o ABSOLUTE
    ../clib/libinit.s                        0x00000000   Number         0  libshutdown2.o ABSOLUTE
    ../clib/libinit.s                        0x00000000   Number         0  libinit2.o ABSOLUTE
    ../clib/libinit.s                        0x00000000   Number         0  libshutdown.o ABSOLUTE
    ../clib/libinit.s                        0x00000000   Number         0  libinit.o ABSOLUTE
    ../clib/memcpset.s                       0x00000000   Number         0  rt_memcpy_v6.o ABSOLUTE
    ../clib/memcpset.s                       0x00000000   Number         0  aeabi_memset.o ABSOLUTE
    ../clib/memcpset.s                       0x00000000   Number         0  rt_memcpy_w.o ABSOLUTE
    ../clib/memcpset.s                       0x00000000   Number         0  rt_memclr.o ABSOLUTE
    ../clib/memcpset.s                       0x00000000   Number         0  rt_memclr_w.o ABSOLUTE
    ../clib/printf.c                         0x00000000   Number         0  __printf_wp.o ABSOLUTE
    ../clib/printf.c                         0x00000000   Number         0  __printf_flags_wp.o ABSOLUTE
    ../clib/printf.c                         0x00000000   Number         0  _printf_intcommon.o ABSOLUTE
    ../clib/printf.c                         0x00000000   Number         0  __printf_nopercent.o ABSOLUTE
    ../clib/printf.c                         0x00000000   Number         0  _printf_dec.o ABSOLUTE
    ../clib/printf.c                         0x00000000   Number         0  __printf_flags.o ABSOLUTE
    ../clib/printf.c                         0x00000000   Number         0  __printf_ss_wp.o ABSOLUTE
    ../clib/printf.c                         0x00000000   Number         0  _printf_char_common.o ABSOLUTE
    ../clib/printf.c                         0x00000000   Number         0  _sputc.o ABSOLUTE
    ../clib/printf.c                         0x00000000   Number         0  _printf_char.o ABSOLUTE
    ../clib/printf.c                         0x00000000   Number         0  __printf_ss.o ABSOLUTE
    ../clib/printf.c                         0x00000000   Number         0  __printf_flags_ss.o ABSOLUTE
    ../clib/printf.c                         0x00000000   Number         0  __printf_flags_ss_wp.o ABSOLUTE
    ../clib/printf.c                         0x00000000   Number         0  __2sprintf.o ABSOLUTE
    ../clib/printf.c                         0x00000000   Number         0  noretval__2sprintf.o ABSOLUTE
    ../clib/printf.c                         0x00000000   Number         0  __printf.o ABSOLUTE
    ../clib/printf.c                         0x00000000   Number         0  _printf_str.o ABSOLUTE
    ../clib/printf_percent.s                 0x00000000   Number         0  _printf_u.o ABSOLUTE
    ../clib/printf_percent.s                 0x00000000   Number         0  _printf_percent.o ABSOLUTE
    ../clib/printf_percent.s                 0x00000000   Number         0  _printf_c.o ABSOLUTE
    ../clib/printf_percent.s                 0x00000000   Number         0  _printf_percent_end.o ABSOLUTE
    ../clib/signal.c                         0x00000000   Number         0  defsig_cppl_inner.o ABSOLUTE
    ../clib/signal.c                         0x00000000   Number         0  defsig_fpe_outer.o ABSOLUTE
    ../clib/signal.c                         0x00000000   Number         0  defsig_general.o ABSOLUTE
    ../clib/signal.c                         0x00000000   Number         0  defsig_pvfn_inner.o ABSOLUTE
    ../clib/signal.c                         0x00000000   Number         0  defsig_stak_inner.o ABSOLUTE
    ../clib/signal.c                         0x00000000   Number         0  defsig_rtmem_formal.o ABSOLUTE
    ../clib/signal.c                         0x00000000   Number         0  defsig_rtmem_outer.o ABSOLUTE
    ../clib/signal.c                         0x00000000   Number         0  defsig_rtmem_inner.o ABSOLUTE
    ../clib/signal.c                         0x00000000   Number         0  defsig_rtred_inner.o ABSOLUTE
    ../clib/signal.c                         0x00000000   Number         0  defsig_abrt_inner.o ABSOLUTE
    ../clib/signal.c                         0x00000000   Number         0  defsig_fpe_inner.o ABSOLUTE
    ../clib/signal.c                         0x00000000   Number         0  defsig_exit.o ABSOLUTE
    ../clib/signal.c                         0x00000000   Number         0  __raise.o ABSOLUTE
    ../clib/signal.c                         0x00000000   Number         0  defsig_fpe_formal.o ABSOLUTE
    ../clib/signal.c                         0x00000000   Number         0  defsig_other.o ABSOLUTE
    ../clib/signal.c                         0x00000000   Number         0  defsig_segv_inner.o ABSOLUTE
    ../clib/signal.s                         0x00000000   Number         0  defsig.o ABSOLUTE
    ../clib/stdlib.c                         0x00000000   Number         0  exit.o ABSOLUTE
    ../clib/string.c                         0x00000000   Number         0  strlen.o ABSOLUTE
    ../clib/string.c                         0x00000000   Number         0  strcpy.o ABSOLUTE
    ../fplib/d2f.s                           0x00000000   Number         0  d2f_clz.o ABSOLUTE
    ../fplib/dcmpi.s                         0x00000000   Number         0  dcmpi.o ABSOLUTE
    ../fplib/dflt.s                          0x00000000   Number         0  dflt_clz.o ABSOLUTE
    ../fplib/dleqf.s                         0x00000000   Number         0  dleqf.o ABSOLUTE
    ../fplib/dnaninf.s                       0x00000000   Number         0  dnaninf.o ABSOLUTE
    ../fplib/drenorm.s                       0x00000000   Number         0  drenorm_clz.o ABSOLUTE
    ../fplib/dretinf.s                       0x00000000   Number         0  dretinf.o ABSOLUTE
    ../fplib/drleqf.s                        0x00000000   Number         0  drleqf.o ABSOLUTE
    ../fplib/dunder.s                        0x00000000   Number         0  dunder_clz.o ABSOLUTE
    ../fplib/except.s                        0x00000000   Number         0  except.o ABSOLUTE
    ../fplib/f2d.s                           0x00000000   Number         0  f2d.o ABSOLUTE
    ../fplib/fnaninf.s                       0x00000000   Number         0  fnaninf.o ABSOLUTE
    ../fplib/fpinit.s                        0x00000000   Number         0  fpinit.o ABSOLUTE
    ../fplib/fretinf.s                       0x00000000   Number         0  fretinf.o ABSOLUTE
    ../fplib/funder.s                        0x00000000   Number         0  funder_clz.o ABSOLUTE
    ../fplib/retnan.s                        0x00000000   Number         0  retnan.o ABSOLUTE
    ../fplib/trapv.s                         0x00000000   Number         0  trapv.o ABSOLUTE
    ../fplib/usenofp.s                       0x00000000   Number         0  usenofp.o ABSOLUTE
    ../mathlib/acosf.c                       0x00000000   Number         0  acosf_x.o ABSOLUTE
    ../mathlib/acosf.c                       0x00000000   Number         0  acosf.o ABSOLUTE
    ../mathlib/asinf.c                       0x00000000   Number         0  asinf_x.o ABSOLUTE
    ../mathlib/asinf.c                       0x00000000   Number         0  asinf.o ABSOLUTE
    ../mathlib/atan2f.c                      0x00000000   Number         0  atan2f_x.o ABSOLUTE
    ../mathlib/atan2f.c                      0x00000000   Number         0  atan2f.o ABSOLUTE
    ../mathlib/fabs.c                        0x00000000   Number         0  fabs.o ABSOLUTE
    ../mathlib/fpclassifyf.c                 0x00000000   Number         0  fpclassifyf.o ABSOLUTE
    ../mathlib/funder.c                      0x00000000   Number         0  funder.o ABSOLUTE
    ../mathlib/rredf.c                       0x00000000   Number         0  rredf.o ABSOLUTE
    ../mathlib/sqrtf.c                       0x00000000   Number         0  sqrtf_full_x.o ABSOLUTE
    ../mathlib/sqrtf.c                       0x00000000   Number         0  sqrtf_full.o ABSOLUTE
    ../mathlib/tanf.c                        0x00000000   Number         0  tanf.o ABSOLUTE
    ../mathlib/tanf.c                        0x00000000   Number         0  tanf_x.o ABSOLUTE
    ..\CMSIS\stm32f4xx_it.c                  0x00000000   Number         0  stm32f4xx_it.o ABSOLUTE
    ..\CMSIS\system_stm32f4xx.c              0x00000000   Number         0  system_stm32f4xx.o ABSOLUTE
    ..\CommonTables\arm_common_tables.c      0x00000000   Number         0  arm_common_tables.o ABSOLUTE
    ..\FWLIB\src\misc.c                      0x00000000   Number         0  misc.o ABSOLUTE
    ..\FWLIB\src\stm32f4xx_adc.c             0x00000000   Number         0  stm32f4xx_adc.o ABSOLUTE
    ..\FWLIB\src\stm32f4xx_can.c             0x00000000   Number         0  stm32f4xx_can.o ABSOLUTE
    ..\FWLIB\src\stm32f4xx_cec.c             0x00000000   Number         0  stm32f4xx_cec.o ABSOLUTE
    ..\FWLIB\src\stm32f4xx_crc.c             0x00000000   Number         0  stm32f4xx_crc.o ABSOLUTE
    ..\FWLIB\src\stm32f4xx_cryp.c            0x00000000   Number         0  stm32f4xx_cryp.o ABSOLUTE
    ..\FWLIB\src\stm32f4xx_cryp_aes.c        0x00000000   Number         0  stm32f4xx_cryp_aes.o ABSOLUTE
    ..\FWLIB\src\stm32f4xx_cryp_des.c        0x00000000   Number         0  stm32f4xx_cryp_des.o ABSOLUTE
    ..\FWLIB\src\stm32f4xx_cryp_tdes.c       0x00000000   Number         0  stm32f4xx_cryp_tdes.o ABSOLUTE
    ..\FWLIB\src\stm32f4xx_dac.c             0x00000000   Number         0  stm32f4xx_dac.o ABSOLUTE
    ..\FWLIB\src\stm32f4xx_dbgmcu.c          0x00000000   Number         0  stm32f4xx_dbgmcu.o ABSOLUTE
    ..\FWLIB\src\stm32f4xx_dcmi.c            0x00000000   Number         0  stm32f4xx_dcmi.o ABSOLUTE
    ..\FWLIB\src\stm32f4xx_dfsdm.c           0x00000000   Number         0  stm32f4xx_dfsdm.o ABSOLUTE
    ..\FWLIB\src\stm32f4xx_dma.c             0x00000000   Number         0  stm32f4xx_dma.o ABSOLUTE
    ..\FWLIB\src\stm32f4xx_dma2d.c           0x00000000   Number         0  stm32f4xx_dma2d.o ABSOLUTE
    ..\FWLIB\src\stm32f4xx_dsi.c             0x00000000   Number         0  stm32f4xx_dsi.o ABSOLUTE
    ..\FWLIB\src\stm32f4xx_exti.c            0x00000000   Number         0  stm32f4xx_exti.o ABSOLUTE
    ..\FWLIB\src\stm32f4xx_flash.c           0x00000000   Number         0  stm32f4xx_flash.o ABSOLUTE
    ..\FWLIB\src\stm32f4xx_flash_ramfunc.c   0x00000000   Number         0  stm32f4xx_flash_ramfunc.o ABSOLUTE
    ..\FWLIB\src\stm32f4xx_fmc.c             0x00000000   Number         0  stm32f4xx_fmc.o ABSOLUTE
    ..\FWLIB\src\stm32f4xx_fmpi2c.c          0x00000000   Number         0  stm32f4xx_fmpi2c.o ABSOLUTE
    ..\FWLIB\src\stm32f4xx_gpio.c            0x00000000   Number         0  stm32f4xx_gpio.o ABSOLUTE
    ..\FWLIB\src\stm32f4xx_hash.c            0x00000000   Number         0  stm32f4xx_hash.o ABSOLUTE
    ..\FWLIB\src\stm32f4xx_hash_md5.c        0x00000000   Number         0  stm32f4xx_hash_md5.o ABSOLUTE
    ..\FWLIB\src\stm32f4xx_hash_sha1.c       0x00000000   Number         0  stm32f4xx_hash_sha1.o ABSOLUTE
    ..\FWLIB\src\stm32f4xx_i2c.c             0x00000000   Number         0  stm32f4xx_i2c.o ABSOLUTE
    ..\FWLIB\src\stm32f4xx_iwdg.c            0x00000000   Number         0  stm32f4xx_iwdg.o ABSOLUTE
    ..\FWLIB\src\stm32f4xx_lptim.c           0x00000000   Number         0  stm32f4xx_lptim.o ABSOLUTE
    ..\FWLIB\src\stm32f4xx_ltdc.c            0x00000000   Number         0  stm32f4xx_ltdc.o ABSOLUTE
    ..\FWLIB\src\stm32f4xx_pwr.c             0x00000000   Number         0  stm32f4xx_pwr.o ABSOLUTE
    ..\FWLIB\src\stm32f4xx_qspi.c            0x00000000   Number         0  stm32f4xx_qspi.o ABSOLUTE
    ..\FWLIB\src\stm32f4xx_rcc.c             0x00000000   Number         0  stm32f4xx_rcc.o ABSOLUTE
    ..\FWLIB\src\stm32f4xx_rng.c             0x00000000   Number         0  stm32f4xx_rng.o ABSOLUTE
    ..\FWLIB\src\stm32f4xx_rtc.c             0x00000000   Number         0  stm32f4xx_rtc.o ABSOLUTE
    ..\FWLIB\src\stm32f4xx_sai.c             0x00000000   Number         0  stm32f4xx_sai.o ABSOLUTE
    ..\FWLIB\src\stm32f4xx_sdio.c            0x00000000   Number         0  stm32f4xx_sdio.o ABSOLUTE
    ..\FWLIB\src\stm32f4xx_spdifrx.c         0x00000000   Number         0  stm32f4xx_spdifrx.o ABSOLUTE
    ..\FWLIB\src\stm32f4xx_spi.c             0x00000000   Number         0  stm32f4xx_spi.o ABSOLUTE
    ..\FWLIB\src\stm32f4xx_syscfg.c          0x00000000   Number         0  stm32f4xx_syscfg.o ABSOLUTE
    ..\FWLIB\src\stm32f4xx_tim.c             0x00000000   Number         0  stm32f4xx_tim.o ABSOLUTE
    ..\FWLIB\src\stm32f4xx_usart.c           0x00000000   Number         0  stm32f4xx_usart.o ABSOLUTE
    ..\FWLIB\src\stm32f4xx_wwdg.c            0x00000000   Number         0  stm32f4xx_wwdg.o ABSOLUTE
    ..\FastMathFunctions\arm_cos_f32.c       0x00000000   Number         0  arm_cos_f32.o ABSOLUTE
    ..\FastMathFunctions\arm_sin_f32.c       0x00000000   Number         0  arm_sin_f32.o ABSOLUTE
    ..\User\AHRS\AHRS.c                      0x00000000   Number         0  ahrs.o ABSOLUTE
    ..\\CMSIS\\stm32f4xx_it.c                0x00000000   Number         0  stm32f4xx_it.o ABSOLUTE
    ..\\CMSIS\\system_stm32f4xx.c            0x00000000   Number         0  system_stm32f4xx.o ABSOLUTE
    ..\\CommonTables\\arm_common_tables.c    0x00000000   Number         0  arm_common_tables.o ABSOLUTE
    ..\\FWLIB\\src\\misc.c                   0x00000000   Number         0  misc.o ABSOLUTE
    ..\\FWLIB\\src\\stm32f4xx_adc.c          0x00000000   Number         0  stm32f4xx_adc.o ABSOLUTE
    ..\\FWLIB\\src\\stm32f4xx_can.c          0x00000000   Number         0  stm32f4xx_can.o ABSOLUTE
    ..\\FWLIB\\src\\stm32f4xx_cec.c          0x00000000   Number         0  stm32f4xx_cec.o ABSOLUTE
    ..\\FWLIB\\src\\stm32f4xx_crc.c          0x00000000   Number         0  stm32f4xx_crc.o ABSOLUTE
    ..\\FWLIB\\src\\stm32f4xx_cryp.c         0x00000000   Number         0  stm32f4xx_cryp.o ABSOLUTE
    ..\\FWLIB\\src\\stm32f4xx_cryp_aes.c     0x00000000   Number         0  stm32f4xx_cryp_aes.o ABSOLUTE
    ..\\FWLIB\\src\\stm32f4xx_cryp_des.c     0x00000000   Number         0  stm32f4xx_cryp_des.o ABSOLUTE
    ..\\FWLIB\\src\\stm32f4xx_cryp_tdes.c    0x00000000   Number         0  stm32f4xx_cryp_tdes.o ABSOLUTE
    ..\\FWLIB\\src\\stm32f4xx_dac.c          0x00000000   Number         0  stm32f4xx_dac.o ABSOLUTE
    ..\\FWLIB\\src\\stm32f4xx_dbgmcu.c       0x00000000   Number         0  stm32f4xx_dbgmcu.o ABSOLUTE
    ..\\FWLIB\\src\\stm32f4xx_dcmi.c         0x00000000   Number         0  stm32f4xx_dcmi.o ABSOLUTE
    ..\\FWLIB\\src\\stm32f4xx_dfsdm.c        0x00000000   Number         0  stm32f4xx_dfsdm.o ABSOLUTE
    ..\\FWLIB\\src\\stm32f4xx_dma.c          0x00000000   Number         0  stm32f4xx_dma.o ABSOLUTE
    ..\\FWLIB\\src\\stm32f4xx_dma2d.c        0x00000000   Number         0  stm32f4xx_dma2d.o ABSOLUTE
    ..\\FWLIB\\src\\stm32f4xx_dsi.c          0x00000000   Number         0  stm32f4xx_dsi.o ABSOLUTE
    ..\\FWLIB\\src\\stm32f4xx_exti.c         0x00000000   Number         0  stm32f4xx_exti.o ABSOLUTE
    ..\\FWLIB\\src\\stm32f4xx_flash.c        0x00000000   Number         0  stm32f4xx_flash.o ABSOLUTE
    ..\\FWLIB\\src\\stm32f4xx_flash_ramfunc.c 0x00000000   Number         0  stm32f4xx_flash_ramfunc.o ABSOLUTE
    ..\\FWLIB\\src\\stm32f4xx_fmc.c          0x00000000   Number         0  stm32f4xx_fmc.o ABSOLUTE
    ..\\FWLIB\\src\\stm32f4xx_fmpi2c.c       0x00000000   Number         0  stm32f4xx_fmpi2c.o ABSOLUTE
    ..\\FWLIB\\src\\stm32f4xx_gpio.c         0x00000000   Number         0  stm32f4xx_gpio.o ABSOLUTE
    ..\\FWLIB\\src\\stm32f4xx_hash.c         0x00000000   Number         0  stm32f4xx_hash.o ABSOLUTE
    ..\\FWLIB\\src\\stm32f4xx_hash_md5.c     0x00000000   Number         0  stm32f4xx_hash_md5.o ABSOLUTE
    ..\\FWLIB\\src\\stm32f4xx_hash_sha1.c    0x00000000   Number         0  stm32f4xx_hash_sha1.o ABSOLUTE
    ..\\FWLIB\\src\\stm32f4xx_i2c.c          0x00000000   Number         0  stm32f4xx_i2c.o ABSOLUTE
    ..\\FWLIB\\src\\stm32f4xx_iwdg.c         0x00000000   Number         0  stm32f4xx_iwdg.o ABSOLUTE
    ..\\FWLIB\\src\\stm32f4xx_lptim.c        0x00000000   Number         0  stm32f4xx_lptim.o ABSOLUTE
    ..\\FWLIB\\src\\stm32f4xx_ltdc.c         0x00000000   Number         0  stm32f4xx_ltdc.o ABSOLUTE
    ..\\FWLIB\\src\\stm32f4xx_pwr.c          0x00000000   Number         0  stm32f4xx_pwr.o ABSOLUTE
    ..\\FWLIB\\src\\stm32f4xx_qspi.c         0x00000000   Number         0  stm32f4xx_qspi.o ABSOLUTE
    ..\\FWLIB\\src\\stm32f4xx_rcc.c          0x00000000   Number         0  stm32f4xx_rcc.o ABSOLUTE
    ..\\FWLIB\\src\\stm32f4xx_rng.c          0x00000000   Number         0  stm32f4xx_rng.o ABSOLUTE
    ..\\FWLIB\\src\\stm32f4xx_rtc.c          0x00000000   Number         0  stm32f4xx_rtc.o ABSOLUTE
    ..\\FWLIB\\src\\stm32f4xx_sai.c          0x00000000   Number         0  stm32f4xx_sai.o ABSOLUTE
    ..\\FWLIB\\src\\stm32f4xx_sdio.c         0x00000000   Number         0  stm32f4xx_sdio.o ABSOLUTE
    ..\\FWLIB\\src\\stm32f4xx_spdifrx.c      0x00000000   Number         0  stm32f4xx_spdifrx.o ABSOLUTE
    ..\\FWLIB\\src\\stm32f4xx_spi.c          0x00000000   Number         0  stm32f4xx_spi.o ABSOLUTE
    ..\\FWLIB\\src\\stm32f4xx_syscfg.c       0x00000000   Number         0  stm32f4xx_syscfg.o ABSOLUTE
    ..\\FWLIB\\src\\stm32f4xx_tim.c          0x00000000   Number         0  stm32f4xx_tim.o ABSOLUTE
    ..\\FWLIB\\src\\stm32f4xx_usart.c        0x00000000   Number         0  stm32f4xx_usart.o ABSOLUTE
    ..\\FWLIB\\src\\stm32f4xx_wwdg.c         0x00000000   Number         0  stm32f4xx_wwdg.o ABSOLUTE
    ..\\FastMathFunctions\\arm_cos_f32.c     0x00000000   Number         0  arm_cos_f32.o ABSOLUTE
    ..\\FastMathFunctions\\arm_sin_f32.c     0x00000000   Number         0  arm_sin_f32.o ABSOLUTE
    ..\\user\\AHRS\\AHRS_middleware.c        0x00000000   Number         0  ahrs_middleware.o ABSOLUTE
    ..\\user\\AHRS\\ist8310driver_middleware.c 0x00000000   Number         0  ist8310driver_middleware.o ABSOLUTE
    ..\\user\\AHRS\\mpu6500driver_middleware.c 0x00000000   Number         0  mpu6500driver_middleware.o ABSOLUTE
    ..\\user\\APP\\CAN_receive\\CAN_receive.c 0x00000000   Number         0  can_receive.o ABSOLUTE
    ..\\user\\APP\\FreeRTOS_middleware\\FreeRTOS_middleware.c 0x00000000   Number         0  freertos_middleware.o ABSOLUTE
    ..\\user\\APP\\INS_task\\INS_task.c      0x00000000   Number         0  ins_task.o ABSOLUTE
    ..\\user\\APP\\chassis_task\\chassis_behaviour.c 0x00000000   Number         0  chassis_behaviour.o ABSOLUTE
    ..\\user\\APP\\chassis_task\\chassis_task.c 0x00000000   Number         0  chassis_task.o ABSOLUTE
    ..\\user\\APP\\gimbal_task\\gimbal_behaviour.c 0x00000000   Number         0  gimbal_behaviour.o ABSOLUTE
    ..\\user\\APP\\gimbal_task\\gimbal_task.c 0x00000000   Number         0  gimbal_task.o ABSOLUTE
    ..\\user\\APP\\remote_control\\remote_control.c 0x00000000   Number         0  remote_control.o ABSOLUTE
    ..\\user\\APP\\shoot\\shoot.c            0x00000000   Number         0  shoot.o ABSOLUTE
    ..\\user\\FreeRTOS\\portable\\RVDS\\ARM_CM4F\\port.c 0x00000000   Number         0  port.o ABSOLUTE
    ..\\user\\hardware\\adc\\adc.c           0x00000000   Number         0  adc.o ABSOLUTE
    ..\\user\\hardware\\buzzer\\buzzer.c     0x00000000   Number         0  buzzer.o ABSOLUTE
    ..\\user\\hardware\\can\\can.c           0x00000000   Number         0  can.o ABSOLUTE
    ..\\user\\hardware\\delay\\delay.c       0x00000000   Number         0  delay.o ABSOLUTE
    ..\\user\\hardware\\exit_init\\exit_init.c 0x00000000   Number         0  exit_init.o ABSOLUTE
    ..\\user\\hardware\\flash\\flash.c       0x00000000   Number         0  flash.o ABSOLUTE
    ..\\user\\hardware\\fric\\fric.c         0x00000000   Number         0  fric.o ABSOLUTE
    ..\\user\\hardware\\laser\\laser.c       0x00000000   Number         0  laser.o ABSOLUTE
    ..\\user\\hardware\\led\\led.c           0x00000000   Number         0  led.o ABSOLUTE
    ..\\user\\hardware\\power_ctrl\\power_ctrl.c 0x00000000   Number         0  power_ctrl.o ABSOLUTE
    ..\\user\\hardware\\rc\\rc.c             0x00000000   Number         0  rc.o ABSOLUTE
    ..\\user\\hardware\\rng\\rng.c           0x00000000   Number         0  rng.o ABSOLUTE
    ..\\user\\hardware\\spi\\spi.c           0x00000000   Number         0  spi.o ABSOLUTE
    ..\\user\\hardware\\sys\\sys.c           0x00000000   Number         0  sys.o ABSOLUTE
    ..\\user\\hardware\\timer\\timer.c       0x00000000   Number         0  timer.o ABSOLUTE
    ..\\user\\main.c                         0x00000000   Number         0  main.o ABSOLUTE
    ..\\user\\user_lib\\user_lib.c           0x00000000   Number         0  user_lib.o ABSOLUTE
    ..\startup\startup_stm32f427xx.s         0x00000000   Number         0  startup_stm32f427xx.o ABSOLUTE
    ..\user\AHRS\AHRS_middleware.c           0x00000000   Number         0  ahrs_middleware.o ABSOLUTE
    ..\user\AHRS\ist8310driver.c             0x00000000   Number         0  ist8310driver.o ABSOLUTE
    ..\user\AHRS\ist8310driver_middleware.c  0x00000000   Number         0  ist8310driver_middleware.o ABSOLUTE
    ..\user\AHRS\mpu6500driver.c             0x00000000   Number         0  mpu6500driver.o ABSOLUTE
    ..\user\AHRS\mpu6500driver_middleware.c  0x00000000   Number         0  mpu6500driver_middleware.o ABSOLUTE
    ..\user\APP\CAN_receive\CAN_receive.c    0x00000000   Number         0  can_receive.o ABSOLUTE
    ..\user\APP\FreeRTOS_middleware\FreeRTOS_middleware.c 0x00000000   Number         0  freertos_middleware.o ABSOLUTE
    ..\user\APP\INS_task\INS_task.c          0x00000000   Number         0  ins_task.o ABSOLUTE
    ..\user\APP\calibrate_task\calibrate_task.c 0x00000000   Number         0  calibrate_task.o ABSOLUTE
    ..\user\APP\chassis_task\chassis_behaviour.c 0x00000000   Number         0  chassis_behaviour.o ABSOLUTE
    ..\user\APP\chassis_task\chassis_task.c  0x00000000   Number         0  chassis_task.o ABSOLUTE
    ..\user\APP\detect_task\detect_task.c    0x00000000   Number         0  detect_task.o ABSOLUTE
    ..\user\APP\gimbal_task\gimbal_behaviour.c 0x00000000   Number         0  gimbal_behaviour.o ABSOLUTE
    ..\user\APP\gimbal_task\gimbal_task.c    0x00000000   Number         0  gimbal_task.o ABSOLUTE
    ..\user\APP\pid\pid.c                    0x00000000   Number         0  pid.o ABSOLUTE
    ..\user\APP\remote_control\remote_control.c 0x00000000   Number         0  remote_control.o ABSOLUTE
    ..\user\APP\shoot\shoot.c                0x00000000   Number         0  shoot.o ABSOLUTE
    ..\user\APP\start_task\start_task.c      0x00000000   Number         0  start_task.o ABSOLUTE
    ..\user\APP\user_task\user_task.c        0x00000000   Number         0  user_task.o ABSOLUTE
    ..\user\FreeRTOS\croutine.c              0x00000000   Number         0  croutine.o ABSOLUTE
    ..\user\FreeRTOS\event_groups.c          0x00000000   Number         0  event_groups.o ABSOLUTE
    ..\user\FreeRTOS\list.c                  0x00000000   Number         0  list.o ABSOLUTE
    ..\user\FreeRTOS\portable\MemMang\heap_4.c 0x00000000   Number         0  heap_4.o ABSOLUTE
    ..\user\FreeRTOS\portable\RVDS\ARM_CM4F\port.c 0x00000000   Number         0  port.o ABSOLUTE
    ..\user\FreeRTOS\queue.c                 0x00000000   Number         0  queue.o ABSOLUTE
    ..\user\FreeRTOS\tasks.c                 0x00000000   Number         0  tasks.o ABSOLUTE
    ..\user\FreeRTOS\timers.c                0x00000000   Number         0  timers.o ABSOLUTE
    ..\user\hardware\adc\adc.c               0x00000000   Number         0  adc.o ABSOLUTE
    ..\user\hardware\buzzer\buzzer.c         0x00000000   Number         0  buzzer.o ABSOLUTE
    ..\user\hardware\can\can.c               0x00000000   Number         0  can.o ABSOLUTE
    ..\user\hardware\delay\delay.c           0x00000000   Number         0  delay.o ABSOLUTE
    ..\user\hardware\exit_init\exit_init.c   0x00000000   Number         0  exit_init.o ABSOLUTE
    ..\user\hardware\flash\flash.c           0x00000000   Number         0  flash.o ABSOLUTE
    ..\user\hardware\fric\fric.c             0x00000000   Number         0  fric.o ABSOLUTE
    ..\user\hardware\laser\laser.c           0x00000000   Number         0  laser.o ABSOLUTE
    ..\user\hardware\led\led.c               0x00000000   Number         0  led.o ABSOLUTE
    ..\user\hardware\power_ctrl\power_ctrl.c 0x00000000   Number         0  power_ctrl.o ABSOLUTE
    ..\user\hardware\rc\rc.c                 0x00000000   Number         0  rc.o ABSOLUTE
    ..\user\hardware\rng\rng.c               0x00000000   Number         0  rng.o ABSOLUTE
    ..\user\hardware\spi\spi.c               0x00000000   Number         0  spi.o ABSOLUTE
    ..\user\hardware\sys\sys.c               0x00000000   Number         0  sys.o ABSOLUTE
    ..\user\hardware\timer\timer.c           0x00000000   Number         0  timer.o ABSOLUTE
    ..\user\main.c                           0x00000000   Number         0  main.o ABSOLUTE
    ..\user\user_lib\user_lib.c              0x00000000   Number         0  user_lib.o ABSOLUTE
    dc.s                                     0x00000000   Number         0  dc.o ABSOLUTE
    RESET                                    0x08000000   Section      428  startup_stm32f427xx.o(RESET)
    !!!main                                  0x080001ac   Section        8  __main.o(!!!main)
    !!!scatter                               0x080001b4   Section       52  __scatter.o(!!!scatter)
    !!dczerorl2                              0x080001e8   Section       90  __dczerorl2.o(!!dczerorl2)
    !!handler_zi                             0x08000244   Section       28  __scatter_zi.o(!!handler_zi)
    .ARM.Collect$$libinit$$00000000          0x08000260   Section        2  libinit.o(.ARM.Collect$$libinit$$00000000)
    .ARM.Collect$$libinit$$00000001          0x08000262   Section        4  libinit2.o(.ARM.Collect$$libinit$$00000001)
    .ARM.Collect$$libinit$$00000004          0x08000266   Section        0  libinit2.o(.ARM.Collect$$libinit$$00000004)
    .ARM.Collect$$libinit$$0000000A          0x08000266   Section        0  libinit2.o(.ARM.Collect$$libinit$$0000000A)
    .ARM.Collect$$libinit$$0000000C          0x08000266   Section        0  libinit2.o(.ARM.Collect$$libinit$$0000000C)
    .ARM.Collect$$libinit$$0000000E          0x08000266   Section        0  libinit2.o(.ARM.Collect$$libinit$$0000000E)
    .ARM.Collect$$libinit$$00000011          0x08000266   Section        0  libinit2.o(.ARM.Collect$$libinit$$00000011)
    .ARM.Collect$$libinit$$00000013          0x08000266   Section        0  libinit2.o(.ARM.Collect$$libinit$$00000013)
    .ARM.Collect$$libinit$$00000015          0x08000266   Section        0  libinit2.o(.ARM.Collect$$libinit$$00000015)
    .ARM.Collect$$libinit$$00000017          0x08000266   Section        0  libinit2.o(.ARM.Collect$$libinit$$00000017)
    .ARM.Collect$$libinit$$00000019          0x08000266   Section        0  libinit2.o(.ARM.Collect$$libinit$$00000019)
    .ARM.Collect$$libinit$$0000001B          0x08000266   Section        0  libinit2.o(.ARM.Collect$$libinit$$0000001B)
    .ARM.Collect$$libinit$$0000001D          0x08000266   Section        0  libinit2.o(.ARM.Collect$$libinit$$0000001D)
    .ARM.Collect$$libinit$$0000001F          0x08000266   Section        0  libinit2.o(.ARM.Collect$$libinit$$0000001F)
    .ARM.Collect$$libinit$$00000021          0x08000266   Section        0  libinit2.o(.ARM.Collect$$libinit$$00000021)
    .ARM.Collect$$libinit$$00000023          0x08000266   Section        0  libinit2.o(.ARM.Collect$$libinit$$00000023)
    .ARM.Collect$$libinit$$00000025          0x08000266   Section        0  libinit2.o(.ARM.Collect$$libinit$$00000025)
    .ARM.Collect$$libinit$$0000002C          0x08000266   Section        0  libinit2.o(.ARM.Collect$$libinit$$0000002C)
    .ARM.Collect$$libinit$$0000002E          0x08000266   Section        0  libinit2.o(.ARM.Collect$$libinit$$0000002E)
    .ARM.Collect$$libinit$$00000030          0x08000266   Section        0  libinit2.o(.ARM.Collect$$libinit$$00000030)
    .ARM.Collect$$libinit$$00000032          0x08000266   Section        0  libinit2.o(.ARM.Collect$$libinit$$00000032)
    .ARM.Collect$$libinit$$00000033          0x08000266   Section        2  libinit2.o(.ARM.Collect$$libinit$$00000033)
    .ARM.Collect$$libshutdown$$00000000      0x08000268   Section        2  libshutdown.o(.ARM.Collect$$libshutdown$$00000000)
    .ARM.Collect$$libshutdown$$00000003      0x0800026a   Section        0  libshutdown2.o(.ARM.Collect$$libshutdown$$00000003)
    .ARM.Collect$$libshutdown$$00000006      0x0800026a   Section        0  libshutdown2.o(.ARM.Collect$$libshutdown$$00000006)
    .ARM.Collect$$libshutdown$$00000009      0x0800026a   Section        0  libshutdown2.o(.ARM.Collect$$libshutdown$$00000009)
    .ARM.Collect$$libshutdown$$0000000B      0x0800026a   Section        0  libshutdown2.o(.ARM.Collect$$libshutdown$$0000000B)
    .ARM.Collect$$libshutdown$$0000000E      0x0800026a   Section        0  libshutdown2.o(.ARM.Collect$$libshutdown$$0000000E)
    .ARM.Collect$$libshutdown$$0000000F      0x0800026a   Section        2  libshutdown2.o(.ARM.Collect$$libshutdown$$0000000F)
    .ARM.Collect$$rtentry$$00000000          0x0800026c   Section        0  __rtentry.o(.ARM.Collect$$rtentry$$00000000)
    .ARM.Collect$$rtentry$$00000002          0x0800026c   Section        0  __rtentry2.o(.ARM.Collect$$rtentry$$00000002)
    .ARM.Collect$$rtentry$$00000004          0x0800026c   Section        6  __rtentry4.o(.ARM.Collect$$rtentry$$00000004)
    .ARM.Collect$$rtentry$$00000009          0x08000272   Section        0  __rtentry2.o(.ARM.Collect$$rtentry$$00000009)
    .ARM.Collect$$rtentry$$0000000A          0x08000272   Section        4  __rtentry2.o(.ARM.Collect$$rtentry$$0000000A)
    .ARM.Collect$$rtentry$$0000000C          0x08000276   Section        0  __rtentry2.o(.ARM.Collect$$rtentry$$0000000C)
    .ARM.Collect$$rtentry$$0000000D          0x08000276   Section        8  __rtentry2.o(.ARM.Collect$$rtentry$$0000000D)
    .ARM.Collect$$rtexit$$00000000           0x0800027e   Section        2  rtexit.o(.ARM.Collect$$rtexit$$00000000)
    .ARM.Collect$$rtexit$$00000002           0x08000280   Section        0  rtexit2.o(.ARM.Collect$$rtexit$$00000002)
    .ARM.Collect$$rtexit$$00000003           0x08000280   Section        4  rtexit2.o(.ARM.Collect$$rtexit$$00000003)
    .ARM.Collect$$rtexit$$00000004           0x08000284   Section        6  rtexit2.o(.ARM.Collect$$rtexit$$00000004)
    .emb_text                                0x0800028c   Section      182  port.o(.emb_text)
    $v0                                      0x0800028c   Number         0  port.o(.emb_text)
    .text                                    0x08000344   Section       76  startup_stm32f427xx.o(.text)
    $v0                                      0x08000344   Number         0  startup_stm32f427xx.o(.text)
    .text                                    0x08000390   Section        0  heapauxi.o(.text)
    .text                                    0x08000398   Section        8  libspace.o(.text)
    .text                                    0x080003a0   Section       74  sys_stackheap_outer.o(.text)
    .text                                    0x080003ea   Section        0  exit.o(.text)
    .text                                    0x080003f8   Section        0  sys_exit.o(.text)
    .text                                    0x08000404   Section        2  use_no_semi.o(.text)
    .text                                    0x08000406   Section        0  indicate_semi.o(.text)
    i.ADC_ClearFlag                          0x08000406   Section        0  stm32f4xx_adc.o(i.ADC_ClearFlag)
    i.ADC_Cmd                                0x0800040c   Section        0  stm32f4xx_adc.o(i.ADC_Cmd)
    i.ADC_CommonInit                         0x08000424   Section        0  stm32f4xx_adc.o(i.ADC_CommonInit)
    i.ADC_GetConversionValue                 0x08000454   Section        0  stm32f4xx_adc.o(i.ADC_GetConversionValue)
    i.ADC_GetFlagStatus                      0x0800045c   Section        0  stm32f4xx_adc.o(i.ADC_GetFlagStatus)
    i.ADC_Init                               0x08000470   Section        0  stm32f4xx_adc.o(i.ADC_Init)
    i.ADC_RegularChannelConfig               0x080004c4   Section        0  stm32f4xx_adc.o(i.ADC_RegularChannelConfig)
    i.ADC_SoftwareStartConv                  0x0800057c   Section        0  stm32f4xx_adc.o(i.ADC_SoftwareStartConv)
    i.ADC_TempSensorVrefintCmd               0x08000588   Section        0  stm32f4xx_adc.o(i.ADC_TempSensorVrefintCmd)
    i.BSP_init                               0x080005b4   Section        0  main.o(i.BSP_init)
    i.BusFault_Handler                       0x0800062e   Section        0  stm32f4xx_it.o(i.BusFault_Handler)
    i.CAN1_RX0_IRQHandler                    0x08000634   Section        0  can_receive.o(i.CAN1_RX0_IRQHandler)
    i.CAN1_mode_init                         0x08000664   Section        0  can.o(i.CAN1_mode_init)
    i.CAN2_RX0_IRQHandler                    0x08000774   Section        0  can_receive.o(i.CAN2_RX0_IRQHandler)
    i.CAN2_mode_init                         0x080007a4   Section        0  can.o(i.CAN2_mode_init)
    i.CAN_ClearITPendingBit                  0x080008b8   Section        0  stm32f4xx_can.o(i.CAN_ClearITPendingBit)
    i.CAN_FilterInit                         0x08000960   Section        0  stm32f4xx_can.o(i.CAN_FilterInit)
    i.CAN_GetITStatus                        0x08000a68   Section        0  stm32f4xx_can.o(i.CAN_GetITStatus)
    i.CAN_ITConfig                           0x08000b88   Section        0  stm32f4xx_can.o(i.CAN_ITConfig)
    i.CAN_Init                               0x08000b9a   Section        0  stm32f4xx_can.o(i.CAN_Init)
    i.CAN_Receive                            0x08000cae   Section        0  stm32f4xx_can.o(i.CAN_Receive)
    i.CAN_hook                               0x08000da0   Section        0  can_receive.o(i.CAN_hook)
    CAN_hook                                 0x08000da1   Thumb Code   366  can_receive.o(i.CAN_hook)
    i.CheckITStatus                          0x08000f24   Section        0  stm32f4xx_can.o(i.CheckITStatus)
    CheckITStatus                            0x08000f25   Thumb Code    18  stm32f4xx_can.o(i.CheckITStatus)
    i.DMA2_Stream5_IRQHandler                0x08000f38   Section        0  ins_task.o(i.DMA2_Stream5_IRQHandler)
    i.DMA_ClearFlag                          0x08000f90   Section        0  stm32f4xx_dma.o(i.DMA_ClearFlag)
    i.DMA_Cmd                                0x08000fc4   Section        0  stm32f4xx_dma.o(i.DMA_Cmd)
    i.DMA_DeInit                             0x08000fdc   Section        0  stm32f4xx_dma.o(i.DMA_DeInit)
    i.DMA_DoubleBufferModeCmd                0x08001134   Section        0  stm32f4xx_dma.o(i.DMA_DoubleBufferModeCmd)
    i.DMA_DoubleBufferModeConfig             0x0800114a   Section        0  stm32f4xx_dma.o(i.DMA_DoubleBufferModeConfig)
    i.DMA_GetCmdStatus                       0x08001162   Section        0  stm32f4xx_dma.o(i.DMA_GetCmdStatus)
    i.DMA_GetCurrDataCounter                 0x08001176   Section        0  stm32f4xx_dma.o(i.DMA_GetCurrDataCounter)
    i.DMA_GetCurrentMemoryTarget             0x0800117e   Section        0  stm32f4xx_dma.o(i.DMA_GetCurrentMemoryTarget)
    i.DMA_GetFlagStatus                      0x08001194   Section        0  stm32f4xx_dma.o(i.DMA_GetFlagStatus)
    i.DMA_Init                               0x080011d8   Section        0  stm32f4xx_dma.o(i.DMA_Init)
    i.DMA_SetCurrDataCounter                 0x08001230   Section        0  stm32f4xx_dma.o(i.DMA_SetCurrDataCounter)
    i.DebugMon_Handler                       0x08001234   Section        0  stm32f4xx_it.o(i.DebugMon_Handler)
    i.DetectHook                             0x08001238   Section        0  detect_task.o(i.DetectHook)
    i.EXTI9_5_IRQHandler                     0x0800135c   Section        0  ins_task.o(i.EXTI9_5_IRQHandler)
    i.EXTI_ClearITPendingBit                 0x0800137c   Section        0  stm32f4xx_exti.o(i.EXTI_ClearITPendingBit)
    i.EXTI_GetITStatus                       0x08001388   Section        0  stm32f4xx_exti.o(i.EXTI_GetITStatus)
    i.GPIO_Init                              0x080013a0   Section        0  stm32f4xx_gpio.o(i.GPIO_Init)
    i.GPIO_PinAFConfig                       0x08001430   Section        0  stm32f4xx_gpio.o(i.GPIO_PinAFConfig)
    i.GPIO_ResetBits                         0x08001476   Section        0  stm32f4xx_gpio.o(i.GPIO_ResetBits)
    i.GPIO_SetBits                           0x0800147a   Section        0  stm32f4xx_gpio.o(i.GPIO_SetBits)
    i.HardFault_Handler                      0x0800147e   Section        0  stm32f4xx_it.o(i.HardFault_Handler)
    i.INS_cali_gyro                          0x08001484   Section        0  ins_task.o(i.INS_cali_gyro)
    i.INS_set_cali_gyro                      0x080014f8   Section        0  ins_task.o(i.INS_set_cali_gyro)
    i.MemManage_Handler                      0x08001518   Section        0  stm32f4xx_it.o(i.MemManage_Handler)
    i.NMI_Handler                            0x0800151c   Section        0  stm32f4xx_it.o(i.NMI_Handler)
    i.NVIC_Init                              0x08001520   Section        0  misc.o(i.NVIC_Init)
    i.NVIC_PriorityGroupConfig               0x08001598   Section        0  misc.o(i.NVIC_PriorityGroupConfig)
    i.RCC_AHB1PeriphClockCmd                 0x080015ac   Section        0  stm32f4xx_rcc.o(i.RCC_AHB1PeriphClockCmd)
    i.RCC_APB1PeriphClockCmd                 0x080015cc   Section        0  stm32f4xx_rcc.o(i.RCC_APB1PeriphClockCmd)
    i.RCC_APB1PeriphResetCmd                 0x080015ec   Section        0  stm32f4xx_rcc.o(i.RCC_APB1PeriphResetCmd)
    i.RCC_APB2PeriphClockCmd                 0x0800160c   Section        0  stm32f4xx_rcc.o(i.RCC_APB2PeriphClockCmd)
    i.RCC_APB2PeriphResetCmd                 0x0800162c   Section        0  stm32f4xx_rcc.o(i.RCC_APB2PeriphResetCmd)
    i.RCC_GetClocksFreq                      0x0800164c   Section        0  stm32f4xx_rcc.o(i.RCC_GetClocksFreq)
    i.RC_Init                                0x08001734   Section        0  rc.o(i.RC_Init)
    i.RC_unable                              0x08001880   Section        0  rc.o(i.RC_unable)
    i.SBUS_TO_RC                             0x08001890   Section        0  remote_control.o(i.SBUS_TO_RC)
    SBUS_TO_RC                               0x08001891   Thumb Code   218  remote_control.o(i.SBUS_TO_RC)
    i.SPI5_DMA_Enable                        0x0800196c   Section        0  spi.o(i.SPI5_DMA_Enable)
    i.SetSysClock                            0x080019e0   Section        0  system_stm32f4xx.o(i.SetSysClock)
    SetSysClock                              0x080019e1   Thumb Code   272  system_stm32f4xx.o(i.SetSysClock)
    i.SysTick_CLKSourceConfig                0x08001b00   Section        0  misc.o(i.SysTick_CLKSourceConfig)
    i.SysTick_Handler                        0x08001b28   Section        0  freertos_middleware.o(i.SysTick_Handler)
    i.SystemInit                             0x08001b38   Section        0  system_stm32f4xx.o(i.SystemInit)
    i.TIM3_IRQHandler                        0x08001ba0   Section        0  freertos_middleware.o(i.TIM3_IRQHandler)
    i.TIM6_DAC_IRQHandler                    0x08001bd0   Section        0  can_receive.o(i.TIM6_DAC_IRQHandler)
    i.TIM6_Init                              0x08001bf4   Section        0  timer.o(i.TIM6_Init)
    i.TIM_ARRPreloadConfig                   0x08001c6c   Section        0  stm32f4xx_tim.o(i.TIM_ARRPreloadConfig)
    i.TIM_ClearFlag                          0x08001c84   Section        0  stm32f4xx_tim.o(i.TIM_ClearFlag)
    i.TIM_Cmd                                0x08001c8a   Section        0  stm32f4xx_tim.o(i.TIM_Cmd)
    i.TIM_CtrlPWMOutputs                     0x08001ca2   Section        0  stm32f4xx_tim.o(i.TIM_CtrlPWMOutputs)
    i.TIM_DeInit                             0x08001cc0   Section        0  stm32f4xx_tim.o(i.TIM_DeInit)
    i.TIM_GetITStatus                        0x08001e50   Section        0  stm32f4xx_tim.o(i.TIM_GetITStatus)
    i.TIM_ITConfig                           0x08001e72   Section        0  stm32f4xx_tim.o(i.TIM_ITConfig)
    i.TIM_OC1Init                            0x08001e84   Section        0  stm32f4xx_tim.o(i.TIM_OC1Init)
    i.TIM_OC1PreloadConfig                   0x08001f00   Section        0  stm32f4xx_tim.o(i.TIM_OC1PreloadConfig)
    i.TIM_OC4Init                            0x08001f14   Section        0  stm32f4xx_tim.o(i.TIM_OC4Init)
    i.TIM_OC4PreloadConfig                   0x08001f8c   Section        0  stm32f4xx_tim.o(i.TIM_OC4PreloadConfig)
    i.TIM_SetCompare1                        0x08001fa6   Section        0  stm32f4xx_tim.o(i.TIM_SetCompare1)
    i.TIM_SetCompare4                        0x08001faa   Section        0  stm32f4xx_tim.o(i.TIM_SetCompare4)
    i.TIM_TimeBaseInit                       0x08001fb0   Section        0  stm32f4xx_tim.o(i.TIM_TimeBaseInit)
    i.USART1_IRQHandler                      0x08002034   Section        0  remote_control.o(i.USART1_IRQHandler)
    i.USART_ClearFlag                        0x08002124   Section        0  stm32f4xx_usart.o(i.USART_ClearFlag)
    i.USART_Cmd                              0x08002136   Section        0  stm32f4xx_usart.o(i.USART_Cmd)
    i.USART_DMACmd                           0x0800214e   Section        0  stm32f4xx_usart.o(i.USART_DMACmd)
    i.USART_DeInit                           0x08002160   Section        0  stm32f4xx_usart.o(i.USART_DeInit)
    i.USART_GetITStatus                      0x08002250   Section        0  stm32f4xx_usart.o(i.USART_GetITStatus)
    i.USART_ITConfig                         0x080022a4   Section        0  stm32f4xx_usart.o(i.USART_ITConfig)
    i.USART_Init                             0x080022f0   Section        0  stm32f4xx_usart.o(i.USART_Init)
    i.USART_ReceiveData                      0x080023c4   Section        0  stm32f4xx_usart.o(i.USART_ReceiveData)
    i.USART_SendData                         0x080023ce   Section        0  stm32f4xx_usart.o(i.USART_SendData)
    i.UsageFault_Handler                     0x080023d6   Section        0  stm32f4xx_it.o(i.UsageFault_Handler)
    i.buzzer_init                            0x080023dc   Section        0  buzzer.o(i.buzzer_init)
    i.buzzer_off                             0x08002494   Section        0  buzzer.o(i.buzzer_off)
    i.buzzer_on                              0x080024a4   Section        0  buzzer.o(i.buzzer_on)
    i.calc_gimbal_cali                       0x080024c0   Section        0  gimbal_task.o(i.calc_gimbal_cali)
    calc_gimbal_cali                         0x080024c1   Thumb Code   380  gimbal_task.o(i.calc_gimbal_cali)
    i.cali_data_read                         0x08002640   Section        0  calibrate_task.o(i.cali_data_read)
    cali_data_read                           0x08002641   Thumb Code   228  calibrate_task.o(i.cali_data_read)
    i.cali_gimbal_hook                       0x0800272c   Section        0  calibrate_task.o(i.cali_gimbal_hook)
    cali_gimbal_hook                         0x0800272d   Thumb Code   108  calibrate_task.o(i.cali_gimbal_hook)
    i.cali_gyro_hook                         0x08002798   Section        0  calibrate_task.o(i.cali_gyro_hook)
    cali_gyro_hook                           0x08002799   Thumb Code    88  calibrate_task.o(i.cali_gyro_hook)
    i.cali_head_hook                         0x080027f4   Section        0  calibrate_task.o(i.cali_head_hook)
    cali_head_hook                           0x080027f5   Thumb Code    74  calibrate_task.o(i.cali_head_hook)
    i.cali_param_init                        0x08002848   Section        0  calibrate_task.o(i.cali_param_init)
    i.cmd_cali_gimbal_hook                   0x08002900   Section        0  gimbal_task.o(i.cmd_cali_gimbal_hook)
    i.delay_init                             0x080029cc   Section        0  delay.o(i.delay_init)
    i.delay_ms                               0x08002a38   Section        0  delay.o(i.delay_ms)
    i.delay_us                               0x08002a88   Section        0  delay.o(i.delay_us)
    i.flash_read                             0x08002ad8   Section        0  flash.o(i.flash_read)
    i.flow_led_off                           0x08002af8   Section        0  led.o(i.flow_led_off)
    i.fric_PWM_configuration                 0x08002b10   Section        0  fric.o(i.fric_PWM_configuration)
    i.fric_off                               0x08002c54   Section        0  fric.o(i.fric_off)
    i.get_ADC                                0x08002c70   Section        0  adc.o(i.get_ADC)
    get_ADC                                  0x08002c71   Thumb Code    52  adc.o(i.get_ADC)
    i.get_temprate                           0x08002ca8   Section        0  adc.o(i.get_temprate)
    i.gyro_offset                            0x08002d04   Section        0  mpu6500driver.o(i.gyro_offset)
    i.laser_configuration                    0x08002d6c   Section        0  laser.o(i.laser_configuration)
    i.laser_on                               0x08002da8   Section        0  laser.o(i.laser_on)
    i.led_configuration                      0x08002dbc   Section        0  led.o(i.led_configuration)
    i.led_green_off                          0x08002e28   Section        0  led.o(i.led_green_off)
    i.led_red_off                            0x08002e3c   Section        0  led.o(i.led_red_off)
    i.main                                   0x08002e50   Section        0  main.o(i.main)
    i.motor_ecd_to_angle_change              0x08002e70   Section        0  gimbal_task.o(i.motor_ecd_to_angle_change)
    motor_ecd_to_angle_change                0x08002e71   Thumb Code    48  gimbal_task.o(i.motor_ecd_to_angle_change)
    i.mpu6500_SPI_NS_H                       0x08002ea4   Section        0  mpu6500driver_middleware.o(i.mpu6500_SPI_NS_H)
    i.mpu6500_SPI_NS_L                       0x08002eb4   Section        0  mpu6500driver_middleware.o(i.mpu6500_SPI_NS_L)
    i.power_ctrl_configuration               0x08002ec4   Section        0  power_ctrl.o(i.power_ctrl_configuration)
    i.power_ctrl_off                         0x08002f0c   Section        0  power_ctrl.o(i.power_ctrl_off)
    i.power_ctrl_on                          0x08002f2c   Section        0  power_ctrl.o(i.power_ctrl_on)
    i.prvResetNextTaskUnblockTime            0x08002f4c   Section        0  tasks.o(i.prvResetNextTaskUnblockTime)
    prvResetNextTaskUnblockTime              0x08002f4d   Thumb Code    42  tasks.o(i.prvResetNextTaskUnblockTime)
    i.remote_control_init                    0x08002f80   Section        0  remote_control.o(i.remote_control_init)
    i.set_cali_gimbal_hook                   0x08002f94   Section        0  gimbal_task.o(i.set_cali_gimbal_hook)
    i.temperature_ADC_Reset                  0x08002fb4   Section        0  adc.o(i.temperature_ADC_Reset)
    temperature_ADC_Reset                    0x08002fb5   Thumb Code    38  adc.o(i.temperature_ADC_Reset)
    i.temperature_ADC_init                   0x08002fe0   Section        0  adc.o(i.temperature_ADC_init)
    i.user_init                              0x08003034   Section        0  main.o(i.user_init)
    i.uxListRemove                           0x080030c8   Section        0  list.o(i.uxListRemove)
    i.vListInsertEnd                         0x080030f0   Section        0  list.o(i.vListInsertEnd)
    i.vPortValidateInterruptPriority         0x08003108   Section        0  port.o(i.vPortValidateInterruptPriority)
    i.vTaskNotifyGiveFromISR                 0x08003180   Section        0  tasks.o(i.vTaskNotifyGiveFromISR)
    i.vTaskSwitchContext                     0x08003270   Section        0  tasks.o(i.vTaskSwitchContext)
    i.xPortSysTickHandler                    0x080032fc   Section        0  port.o(i.xPortSysTickHandler)
    i.xTaskGetSchedulerState                 0x08003330   Section        0  tasks.o(i.xTaskGetSchedulerState)
    i.xTaskGetTickCount                      0x08003350   Section        0  tasks.o(i.xTaskGetTickCount)
    i.xTaskIncrementTick                     0x0800335c   Section        0  tasks.o(i.xTaskIncrementTick)
    x$fpl$fpinit                             0x080034a4   Section       10  fpinit.o(x$fpl$fpinit)
    $v0                                      0x080034a4   Number         0  fpinit.o(x$fpl$fpinit)
    .data                                    0x20000000   Section       20  system_stm32f4xx.o(.data)
    .data                                    0x20000014   Section       16  stm32f4xx_rcc.o(.data)
    APBAHBPrescTable                         0x20000014   Data          16  stm32f4xx_rcc.o(.data)
    .data                                    0x20000024   Section       60  tasks.o(.data)
    pxDelayedTaskList                        0x20000028   Data           4  tasks.o(.data)
    pxOverflowDelayedTaskList                0x2000002c   Data           4  tasks.o(.data)
    uxDeletedTasksWaitingCleanUp             0x20000030   Data           4  tasks.o(.data)
    uxCurrentNumberOfTasks                   0x20000034   Data           4  tasks.o(.data)
    xTickCount                               0x20000038   Data           4  tasks.o(.data)
    uxTopReadyPriority                       0x2000003c   Data           4  tasks.o(.data)
    xSchedulerRunning                        0x20000040   Data           4  tasks.o(.data)
    uxPendedTicks                            0x20000044   Data           4  tasks.o(.data)
    xYieldPending                            0x20000048   Data           4  tasks.o(.data)
    xNumOfOverflows                          0x2000004c   Data           4  tasks.o(.data)
    uxTaskNumber                             0x20000050   Data           4  tasks.o(.data)
    xNextTaskUnblockTime                     0x20000054   Data           4  tasks.o(.data)
    xIdleTaskHandle                          0x20000058   Data           4  tasks.o(.data)
    uxSchedulerSuspended                     0x2000005c   Data           4  tasks.o(.data)
    .data                                    0x20000060   Section       12  port.o(.data)
    uxCriticalNesting                        0x20000060   Data           4  port.o(.data)
    ucMaxSysCallPriority                     0x20000064   Data           1  port.o(.data)
    ulMaxPRIGROUPValue                       0x20000068   Data           4  port.o(.data)
    .data                                    0x2000006c   Section        8  delay.o(.data)
    fac_us                                   0x2000006c   Data           1  delay.o(.data)
    fac_ms                                   0x20000070   Data           4  delay.o(.data)
    .data                                    0x20000074   Section       84  calibrate_task.o(.data)
    calibrate_RC                             0x20000078   Data           4  calibrate_task.o(.data)
    head_cali                                0x2000007c   Data           8  calibrate_task.o(.data)
    cali_sensor_buf                          0x20000084   Data          20  calibrate_task.o(.data)
    cali_sensor_size                         0x20000098   Data           5  calibrate_task.o(.data)
    calibrate_systemTick                     0x200000b4   Data           4  calibrate_task.o(.data)
    i                                        0x200000b8   Data           1  calibrate_task.o(.data)
    i                                        0x200000b9   Data           1  calibrate_task.o(.data)
    rc_cmd_systemTick                        0x200000bc   Data           4  calibrate_task.o(.data)
    buzzer_time                              0x200000c0   Data           2  calibrate_task.o(.data)
    rc_cmd_time                              0x200000c2   Data           2  calibrate_task.o(.data)
    rc_action_falg                           0x200000c4   Data           1  calibrate_task.o(.data)
    count_time                               0x200000c6   Data           2  calibrate_task.o(.data)
    .data                                    0x200000c8   Section        1  can_receive.o(.data)
    i                                        0x200000c8   Data           1  can_receive.o(.data)
    .data                                    0x200000d0   Section        8  freertos_middleware.o(.data)
    .data                                    0x200000d8   Section      128  ins_task.o(.data)
    INSTask_Local_Handler                    0x200000d8   Data           4  ins_task.o(.data)
    Gyro_Scale_Factor                        0x200000e0   Data          36  ins_task.o(.data)
    Accel_Scale_Factor                       0x20000104   Data          36  ins_task.o(.data)
    Mag_Scale_Factor                         0x20000128   Data          36  ins_task.o(.data)
    first_temperate                          0x2000014c   Data           1  ins_task.o(.data)
    updata_count                             0x2000014d   Data           1  ins_task.o(.data)
    start_gyro_cali_time                     0x2000014e   Data           2  ins_task.o(.data)
    temp_constant_time                       0x20000150   Data           1  ins_task.o(.data)
    xHigherPriorityTaskWoken                 0x20000154   Data           4  ins_task.o(.data)
    .data                                    0x20000158   Section        2  remote_control.o(.data)
    this_time_rx_len                         0x20000158   Data           2  remote_control.o(.data)
    .bss                                     0x2000015c   Section      740  tasks.o(.bss)
    pxReadyTasksLists                        0x2000015c   Data         640  tasks.o(.bss)
    xDelayedTaskList1                        0x200003dc   Data          20  tasks.o(.bss)
    xDelayedTaskList2                        0x200003f0   Data          20  tasks.o(.bss)
    xPendingReadyList                        0x20000404   Data          20  tasks.o(.bss)
    xTasksWaitingTermination                 0x20000418   Data          20  tasks.o(.bss)
    xSuspendedTaskList                       0x2000042c   Data          20  tasks.o(.bss)
    .bss                                     0x20000440   Section      157  calibrate_task.o(.bss)
    gimbal_cali                              0x20000440   Data          20  calibrate_task.o(.bss)
    gyro_cali                                0x20000454   Data          24  calibrate_task.o(.bss)
    accel_cali                               0x2000046c   Data          24  calibrate_task.o(.bss)
    mag_cali                                 0x20000484   Data          24  calibrate_task.o(.bss)
    cali_sensor                              0x2000049c   Data          65  calibrate_task.o(.bss)
    .bss                                     0x200004e0   Section      132  can_receive.o(.bss)
    motor_yaw                                0x200004e0   Data          10  can_receive.o(.bss)
    motor_pit                                0x200004ea   Data          10  can_receive.o(.bss)
    motor_trigger                            0x200004f4   Data          10  can_receive.o(.bss)
    motor_chassis                            0x200004fe   Data          40  can_receive.o(.bss)
    GIMBAL_TxMessage                         0x20000528   Data          20  can_receive.o(.bss)
    rx1_message                              0x2000053c   Data          20  can_receive.o(.bss)
    rx2_message                              0x20000550   Data          20  can_receive.o(.bss)
    .bss                                     0x20000564   Section      324  detect_task.o(.bss)
    errorList                                0x20000564   Data         324  detect_task.o(.bss)
    .bss                                     0x200006a8   Section      488  gimbal_task.o(.bss)
    gimbal_control                           0x200006a8   Data         488  gimbal_task.o(.bss)
    .bss                                     0x20000890   Section      292  ins_task.o(.bss)
    mpu6500_spi_rxbuf                        0x20000890   Data          23  ins_task.o(.bss)
    mpu6500_real_data                        0x200008a8   Data          32  ins_task.o(.bss)
    gyro_cali_offset                         0x200008c8   Data          12  ins_task.o(.bss)
    Gyro_Offset                              0x200008d4   Data          12  ins_task.o(.bss)
    Accel_Offset                             0x200008e0   Data          12  ins_task.o(.bss)
    ist8310_real_data                        0x200008ec   Data          16  ins_task.o(.bss)
    Mag_Offset                               0x200008fc   Data          12  ins_task.o(.bss)
    INS_gyro                                 0x20000908   Data          12  ins_task.o(.bss)
    INS_accel                                0x20000914   Data          12  ins_task.o(.bss)
    INS_mag                                  0x20000920   Data          12  ins_task.o(.bss)
    INS_Angle                                0x2000092c   Data          12  ins_task.o(.bss)
    INS_quat                                 0x20000938   Data          16  ins_task.o(.bss)
    imuTempPid                               0x20000948   Data          72  ins_task.o(.bss)
    accel_fliter_1                           0x20000990   Data          12  ins_task.o(.bss)
    accel_fliter_2                           0x2000099c   Data          12  ins_task.o(.bss)
    accel_fliter_3                           0x200009a8   Data          12  ins_task.o(.bss)
    .bss                                     0x200009b4   Section       94  remote_control.o(.bss)
    rc_ctrl                                  0x200009b4   Data          22  remote_control.o(.bss)
    SBUS_rx_buf                              0x200009ca   Data          72  remote_control.o(.bss)
    .bss                                     0x20000a14   Section       96  libspace.o(.bss)
    HEAP                                     0x20000a78   Section        0  startup_stm32f427xx.o(HEAP)
    STACK                                    0x20000a78   Section     1024  startup_stm32f427xx.o(STACK)
    Heap_Mem                                 0x20000a78   Data           0  startup_stm32f427xx.o(HEAP)
    Stack_Mem                                0x20000a78   Data        1024  startup_stm32f427xx.o(STACK)
    __initial_sp                             0x20000e78   Data           0  startup_stm32f427xx.o(STACK)

    Global Symbols

    Symbol Name                              Value     Ov Type        Size  Object(Section)

    BuildAttributes$$THM_ISAv4$E$P$D$K$B$S$7EM$VFPi3$EXTD16$VFPS$VFMA$PE$A:L22UL41UL21$X:L11$S22US41US21$IEEE1$IW$USESV6$~STKCKD$USESV7$~SHL$OTIME$ROPI$IEEEX$EBA8$UX$STANDARDLIB$REQ8$PRES8$EABIv2 0x00000000   Number         0  anon$$obj.o ABSOLUTE
    __ARM_use_no_argv                        0x00000000   Number         0  main.o ABSOLUTE
    __ARM_exceptions_init                     - Undefined Weak Reference
    __alloca_initialize                       - Undefined Weak Reference
    __arm_preinit_                            - Undefined Weak Reference
    __cpp_initialize__aeabi_                  - Undefined Weak Reference
    __cxa_finalize                            - Undefined Weak Reference
    __rt_locale                               - Undefined Weak Reference
    __sigvec_lookup                           - Undefined Weak Reference
    _atexit_init                              - Undefined Weak Reference
    _call_atexit_fns                          - Undefined Weak Reference
    _clock_init                               - Undefined Weak Reference
    _fp_trap_big                              - Undefined Weak Reference
    _fp_trap_init                             - Undefined Weak Reference
    _fp_trap_shutdown                         - Undefined Weak Reference
    _get_lc_collate                           - Undefined Weak Reference
    _get_lc_ctype                             - Undefined Weak Reference
    _get_lc_monetary                          - Undefined Weak Reference
    _get_lc_numeric                           - Undefined Weak Reference
    _get_lc_time                              - Undefined Weak Reference
    _getenv_init                              - Undefined Weak Reference
    _handle_redirection                       - Undefined Weak Reference
    _init_alloc                               - Undefined Weak Reference
    _init_user_alloc                          - Undefined Weak Reference
    _initio                                   - Undefined Weak Reference
    _printf_mbtowc                            - Undefined Weak Reference
    _printf_post_padding                      - Undefined Weak Reference
    _printf_pre_padding                       - Undefined Weak Reference
    _printf_truncate_signed                   - Undefined Weak Reference
    _printf_truncate_unsigned                 - Undefined Weak Reference
    _rand_init                                - Undefined Weak Reference
    _signal_finish                            - Undefined Weak Reference
    _signal_init                              - Undefined Weak Reference
    _terminate_alloc                          - Undefined Weak Reference
    _terminate_user_alloc                     - Undefined Weak Reference
    _terminateio                              - Undefined Weak Reference
    __Vectors_Size                           0x000001ac   Number         0  startup_stm32f427xx.o ABSOLUTE
    __Vectors                                0x08000000   Data           4  startup_stm32f427xx.o(RESET)
    __Vectors_End                            0x080001ac   Data           0  startup_stm32f427xx.o(RESET)
    __main                                   0x080001ad   Thumb Code     8  __main.o(!!!main)
    __scatterload                            0x080001b5   Thumb Code     0  __scatter.o(!!!scatter)
    __scatterload_rt2                        0x080001b5   Thumb Code    44  __scatter.o(!!!scatter)
    __scatterload_rt2_thumb_only             0x080001b5   Thumb Code     0  __scatter.o(!!!scatter)
    __scatterload_null                       0x080001c3   Thumb Code     0  __scatter.o(!!!scatter)
    __decompress                             0x080001e9   Thumb Code    90  __dczerorl2.o(!!dczerorl2)
    __decompress1                            0x080001e9   Thumb Code     0  __dczerorl2.o(!!dczerorl2)
    __scatterload_zeroinit                   0x08000245   Thumb Code    28  __scatter_zi.o(!!handler_zi)
    __rt_lib_init                            0x08000261   Thumb Code     0  libinit.o(.ARM.Collect$$libinit$$00000000)
    __rt_lib_init_fp_1                       0x08000263   Thumb Code     0  libinit2.o(.ARM.Collect$$libinit$$00000001)
    __rt_lib_init_alloca_1                   0x08000267   Thumb Code     0  libinit2.o(.ARM.Collect$$libinit$$0000002E)
    __rt_lib_init_argv_1                     0x08000267   Thumb Code     0  libinit2.o(.ARM.Collect$$libinit$$0000002C)
    __rt_lib_init_atexit_1                   0x08000267   Thumb Code     0  libinit2.o(.ARM.Collect$$libinit$$0000001B)
    __rt_lib_init_clock_1                    0x08000267   Thumb Code     0  libinit2.o(.ARM.Collect$$libinit$$00000021)
    __rt_lib_init_cpp_1                      0x08000267   Thumb Code     0  libinit2.o(.ARM.Collect$$libinit$$00000032)
    __rt_lib_init_exceptions_1               0x08000267   Thumb Code     0  libinit2.o(.ARM.Collect$$libinit$$00000030)
    __rt_lib_init_fp_trap_1                  0x08000267   Thumb Code     0  libinit2.o(.ARM.Collect$$libinit$$0000001F)
    __rt_lib_init_getenv_1                   0x08000267   Thumb Code     0  libinit2.o(.ARM.Collect$$libinit$$00000023)
    __rt_lib_init_heap_1                     0x08000267   Thumb Code     0  libinit2.o(.ARM.Collect$$libinit$$0000000A)
    __rt_lib_init_lc_collate_1               0x08000267   Thumb Code     0  libinit2.o(.ARM.Collect$$libinit$$00000011)
    __rt_lib_init_lc_ctype_1                 0x08000267   Thumb Code     0  libinit2.o(.ARM.Collect$$libinit$$00000013)
    __rt_lib_init_lc_monetary_1              0x08000267   Thumb Code     0  libinit2.o(.ARM.Collect$$libinit$$00000015)
    __rt_lib_init_lc_numeric_1               0x08000267   Thumb Code     0  libinit2.o(.ARM.Collect$$libinit$$00000017)
    __rt_lib_init_lc_time_1                  0x08000267   Thumb Code     0  libinit2.o(.ARM.Collect$$libinit$$00000019)
    __rt_lib_init_preinit_1                  0x08000267   Thumb Code     0  libinit2.o(.ARM.Collect$$libinit$$00000004)
    __rt_lib_init_rand_1                     0x08000267   Thumb Code     0  libinit2.o(.ARM.Collect$$libinit$$0000000E)
    __rt_lib_init_return                     0x08000267   Thumb Code     0  libinit2.o(.ARM.Collect$$libinit$$00000033)
    __rt_lib_init_signal_1                   0x08000267   Thumb Code     0  libinit2.o(.ARM.Collect$$libinit$$0000001D)
    __rt_lib_init_stdio_1                    0x08000267   Thumb Code     0  libinit2.o(.ARM.Collect$$libinit$$00000025)
    __rt_lib_init_user_alloc_1               0x08000267   Thumb Code     0  libinit2.o(.ARM.Collect$$libinit$$0000000C)
    __rt_lib_shutdown                        0x08000269   Thumb Code     0  libshutdown.o(.ARM.Collect$$libshutdown$$00000000)
    __rt_lib_shutdown_fp_trap_1              0x0800026b   Thumb Code     0  libshutdown2.o(.ARM.Collect$$libshutdown$$00000006)
    __rt_lib_shutdown_heap_1                 0x0800026b   Thumb Code     0  libshutdown2.o(.ARM.Collect$$libshutdown$$0000000E)
    __rt_lib_shutdown_return                 0x0800026b   Thumb Code     0  libshutdown2.o(.ARM.Collect$$libshutdown$$0000000F)
    __rt_lib_shutdown_signal_1               0x0800026b   Thumb Code     0  libshutdown2.o(.ARM.Collect$$libshutdown$$00000009)
    __rt_lib_shutdown_stdio_1                0x0800026b   Thumb Code     0  libshutdown2.o(.ARM.Collect$$libshutdown$$00000003)
    __rt_lib_shutdown_user_alloc_1           0x0800026b   Thumb Code     0  libshutdown2.o(.ARM.Collect$$libshutdown$$0000000B)
    __rt_entry                               0x0800026d   Thumb Code     0  __rtentry.o(.ARM.Collect$$rtentry$$00000000)
    __rt_entry_presh_1                       0x0800026d   Thumb Code     0  __rtentry2.o(.ARM.Collect$$rtentry$$00000002)
    __rt_entry_sh                            0x0800026d   Thumb Code     0  __rtentry4.o(.ARM.Collect$$rtentry$$00000004)
    __rt_entry_li                            0x08000273   Thumb Code     0  __rtentry2.o(.ARM.Collect$$rtentry$$0000000A)
    __rt_entry_postsh_1                      0x08000273   Thumb Code     0  __rtentry2.o(.ARM.Collect$$rtentry$$00000009)
    __rt_entry_main                          0x08000277   Thumb Code     0  __rtentry2.o(.ARM.Collect$$rtentry$$0000000D)
    __rt_entry_postli_1                      0x08000277   Thumb Code     0  __rtentry2.o(.ARM.Collect$$rtentry$$0000000C)
    __rt_exit                                0x0800027f   Thumb Code     0  rtexit.o(.ARM.Collect$$rtexit$$00000000)
    __rt_exit_ls                             0x08000281   Thumb Code     0  rtexit2.o(.ARM.Collect$$rtexit$$00000003)
    __rt_exit_prels_1                        0x08000281   Thumb Code     0  rtexit2.o(.ARM.Collect$$rtexit$$00000002)
    __rt_exit_exit                           0x08000285   Thumb Code     0  rtexit2.o(.ARM.Collect$$rtexit$$00000004)
    SVC_Handler                              0x0800028d   Thumb Code    28  port.o(.emb_text)
    __asm___6_port_c_39a90d8d__prvStartFirstTask 0x080002ad   Thumb Code    28  port.o(.emb_text)
    __asm___6_port_c_39a90d8d__prvEnableVFP  0x080002cd   Thumb Code    16  port.o(.emb_text)
    PendSV_Handler                           0x080002e1   Thumb Code    88  port.o(.emb_text)
    vPortGetIPSR                             0x0800033d   Thumb Code     6  port.o(.emb_text)
    Reset_Handler                            0x08000345   Thumb Code    18  startup_stm32f427xx.o(.text)
    ADC_IRQHandler                           0x08000369   Thumb Code     0  startup_stm32f427xx.o(.text)
    CAN1_RX1_IRQHandler                      0x08000369   Thumb Code     0  startup_stm32f427xx.o(.text)
    CAN1_SCE_IRQHandler                      0x08000369   Thumb Code     0  startup_stm32f427xx.o(.text)
    CAN1_TX_IRQHandler                       0x08000369   Thumb Code     0  startup_stm32f427xx.o(.text)
    CAN2_RX1_IRQHandler                      0x08000369   Thumb Code     0  startup_stm32f427xx.o(.text)
    CAN2_SCE_IRQHandler                      0x08000369   Thumb Code     0  startup_stm32f427xx.o(.text)
    CAN2_TX_IRQHandler                       0x08000369   Thumb Code     0  startup_stm32f427xx.o(.text)
    DCMI_IRQHandler                          0x08000369   Thumb Code     0  startup_stm32f427xx.o(.text)
    DMA1_Stream0_IRQHandler                  0x08000369   Thumb Code     0  startup_stm32f427xx.o(.text)
    DMA1_Stream1_IRQHandler                  0x08000369   Thumb Code     0  startup_stm32f427xx.o(.text)
    DMA1_Stream2_IRQHandler                  0x08000369   Thumb Code     0  startup_stm32f427xx.o(.text)
    DMA1_Stream3_IRQHandler                  0x08000369   Thumb Code     0  startup_stm32f427xx.o(.text)
    DMA1_Stream4_IRQHandler                  0x08000369   Thumb Code     0  startup_stm32f427xx.o(.text)
    DMA1_Stream5_IRQHandler                  0x08000369   Thumb Code     0  startup_stm32f427xx.o(.text)
    DMA1_Stream6_IRQHandler                  0x08000369   Thumb Code     0  startup_stm32f427xx.o(.text)
    DMA1_Stream7_IRQHandler                  0x08000369   Thumb Code     0  startup_stm32f427xx.o(.text)
    DMA2D_IRQHandler                         0x08000369   Thumb Code     0  startup_stm32f427xx.o(.text)
    DMA2_Stream0_IRQHandler                  0x08000369   Thumb Code     0  startup_stm32f427xx.o(.text)
    DMA2_Stream1_IRQHandler                  0x08000369   Thumb Code     0  startup_stm32f427xx.o(.text)
    DMA2_Stream2_IRQHandler                  0x08000369   Thumb Code     0  startup_stm32f427xx.o(.text)
    DMA2_Stream3_IRQHandler                  0x08000369   Thumb Code     0  startup_stm32f427xx.o(.text)
    DMA2_Stream4_IRQHandler                  0x08000369   Thumb Code     0  startup_stm32f427xx.o(.text)
    DMA2_Stream6_IRQHandler                  0x08000369   Thumb Code     0  startup_stm32f427xx.o(.text)
    DMA2_Stream7_IRQHandler                  0x08000369   Thumb Code     0  startup_stm32f427xx.o(.text)
    ETH_IRQHandler                           0x08000369   Thumb Code     0  startup_stm32f427xx.o(.text)
    ETH_WKUP_IRQHandler                      0x08000369   Thumb Code     0  startup_stm32f427xx.o(.text)
    EXTI0_IRQHandler                         0x08000369   Thumb Code     0  startup_stm32f427xx.o(.text)
    EXTI15_10_IRQHandler                     0x08000369   Thumb Code     0  startup_stm32f427xx.o(.text)
    EXTI1_IRQHandler                         0x08000369   Thumb Code     0  startup_stm32f427xx.o(.text)
    EXTI2_IRQHandler                         0x08000369   Thumb Code     0  startup_stm32f427xx.o(.text)
    EXTI3_IRQHandler                         0x08000369   Thumb Code     0  startup_stm32f427xx.o(.text)
    EXTI4_IRQHandler                         0x08000369   Thumb Code     0  startup_stm32f427xx.o(.text)
    FLASH_IRQHandler                         0x08000369   Thumb Code     0  startup_stm32f427xx.o(.text)
    FMC_IRQHandler                           0x08000369   Thumb Code     0  startup_stm32f427xx.o(.text)
    FPU_IRQHandler                           0x08000369   Thumb Code     0  startup_stm32f427xx.o(.text)
    HASH_RNG_IRQHandler                      0x08000369   Thumb Code     0  startup_stm32f427xx.o(.text)
    I2C1_ER_IRQHandler                       0x08000369   Thumb Code     0  startup_stm32f427xx.o(.text)
    I2C1_EV_IRQHandler                       0x08000369   Thumb Code     0  startup_stm32f427xx.o(.text)
    I2C2_ER_IRQHandler                       0x08000369   Thumb Code     0  startup_stm32f427xx.o(.text)
    I2C2_EV_IRQHandler                       0x08000369   Thumb Code     0  startup_stm32f427xx.o(.text)
    I2C3_ER_IRQHandler                       0x08000369   Thumb Code     0  startup_stm32f427xx.o(.text)
    I2C3_EV_IRQHandler                       0x08000369   Thumb Code     0  startup_stm32f427xx.o(.text)
    OTG_FS_IRQHandler                        0x08000369   Thumb Code     0  startup_stm32f427xx.o(.text)
    OTG_FS_WKUP_IRQHandler                   0x08000369   Thumb Code     0  startup_stm32f427xx.o(.text)
    OTG_HS_EP1_IN_IRQHandler                 0x08000369   Thumb Code     0  startup_stm32f427xx.o(.text)
    OTG_HS_EP1_OUT_IRQHandler                0x08000369   Thumb Code     0  startup_stm32f427xx.o(.text)
    OTG_HS_IRQHandler                        0x08000369   Thumb Code     0  startup_stm32f427xx.o(.text)
    OTG_HS_WKUP_IRQHandler                   0x08000369   Thumb Code     0  startup_stm32f427xx.o(.text)
    PVD_IRQHandler                           0x08000369   Thumb Code     0  startup_stm32f427xx.o(.text)
    RCC_IRQHandler                           0x08000369   Thumb Code     0  startup_stm32f427xx.o(.text)
    RTC_Alarm_IRQHandler                     0x08000369   Thumb Code     0  startup_stm32f427xx.o(.text)
    RTC_WKUP_IRQHandler                      0x08000369   Thumb Code     0  startup_stm32f427xx.o(.text)
    SAI1_IRQHandler                          0x08000369   Thumb Code     0  startup_stm32f427xx.o(.text)
    SDIO_IRQHandler                          0x08000369   Thumb Code     0  startup_stm32f427xx.o(.text)
    SPI1_IRQHandler                          0x08000369   Thumb Code     0  startup_stm32f427xx.o(.text)
    SPI2_IRQHandler                          0x08000369   Thumb Code     0  startup_stm32f427xx.o(.text)
    SPI3_IRQHandler                          0x08000369   Thumb Code     0  startup_stm32f427xx.o(.text)
    SPI4_IRQHandler                          0x08000369   Thumb Code     0  startup_stm32f427xx.o(.text)
    SPI5_IRQHandler                          0x08000369   Thumb Code     0  startup_stm32f427xx.o(.text)
    SPI6_IRQHandler                          0x08000369   Thumb Code     0  startup_stm32f427xx.o(.text)
    TAMP_STAMP_IRQHandler                    0x08000369   Thumb Code     0  startup_stm32f427xx.o(.text)
    TIM1_BRK_TIM9_IRQHandler                 0x08000369   Thumb Code     0  startup_stm32f427xx.o(.text)
    TIM1_CC_IRQHandler                       0x08000369   Thumb Code     0  startup_stm32f427xx.o(.text)
    TIM1_TRG_COM_TIM11_IRQHandler            0x08000369   Thumb Code     0  startup_stm32f427xx.o(.text)
    TIM1_UP_TIM10_IRQHandler                 0x08000369   Thumb Code     0  startup_stm32f427xx.o(.text)
    TIM2_IRQHandler                          0x08000369   Thumb Code     0  startup_stm32f427xx.o(.text)
    TIM4_IRQHandler                          0x08000369   Thumb Code     0  startup_stm32f427xx.o(.text)
    TIM5_IRQHandler                          0x08000369   Thumb Code     0  startup_stm32f427xx.o(.text)
    TIM7_IRQHandler                          0x08000369   Thumb Code     0  startup_stm32f427xx.o(.text)
    TIM8_BRK_TIM12_IRQHandler                0x08000369   Thumb Code     0  startup_stm32f427xx.o(.text)
    TIM8_CC_IRQHandler                       0x08000369   Thumb Code     0  startup_stm32f427xx.o(.text)
    TIM8_TRG_COM_TIM14_IRQHandler            0x08000369   Thumb Code     0  startup_stm32f427xx.o(.text)
    TIM8_UP_TIM13_IRQHandler                 0x08000369   Thumb Code     0  startup_stm32f427xx.o(.text)
    UART4_IRQHandler                         0x08000369   Thumb Code     0  startup_stm32f427xx.o(.text)
    UART5_IRQHandler                         0x08000369   Thumb Code     0  startup_stm32f427xx.o(.text)
    UART7_IRQHandler                         0x08000369   Thumb Code     0  startup_stm32f427xx.o(.text)
    UART8_IRQHandler                         0x08000369   Thumb Code     0  startup_stm32f427xx.o(.text)
    USART2_IRQHandler                        0x08000369   Thumb Code     0  startup_stm32f427xx.o(.text)
    USART3_IRQHandler                        0x08000369   Thumb Code     0  startup_stm32f427xx.o(.text)
    USART6_IRQHandler                        0x08000369   Thumb Code     0  startup_stm32f427xx.o(.text)
    WWDG_IRQHandler                          0x08000369   Thumb Code     0  startup_stm32f427xx.o(.text)
    __user_initial_stackheap                 0x0800036d   Thumb Code     0  startup_stm32f427xx.o(.text)
    __use_two_region_memory                  0x08000391   Thumb Code     2  heapauxi.o(.text)
    __rt_heap_escrow$2region                 0x08000393   Thumb Code     2  heapauxi.o(.text)
    __rt_heap_expand$2region                 0x08000395   Thumb Code     2  heapauxi.o(.text)
    __user_libspace                          0x08000399   Thumb Code     8  libspace.o(.text)
    __user_perproc_libspace                  0x08000399   Thumb Code     0  libspace.o(.text)
    __user_perthread_libspace                0x08000399   Thumb Code     0  libspace.o(.text)
    __user_setup_stackheap                   0x080003a1   Thumb Code    74  sys_stackheap_outer.o(.text)
    exit                                     0x080003eb   Thumb Code    12  exit.o(.text)
    _sys_exit                                0x080003f9   Thumb Code     8  sys_exit.o(.text)
    __I$use$semihosting                      0x08000405   Thumb Code     0  use_no_semi.o(.text)
    __use_no_semihosting_swi                 0x08000405   Thumb Code     2  use_no_semi.o(.text)
    ADC_ClearFlag                            0x08000407   Thumb Code     6  stm32f4xx_adc.o(i.ADC_ClearFlag)
    __semihosting_library_function           0x08000407   Thumb Code     0  indicate_semi.o(.text)
    ADC_Cmd                                  0x0800040d   Thumb Code    22  stm32f4xx_adc.o(i.ADC_Cmd)
    ADC_CommonInit                           0x08000425   Thumb Code    34  stm32f4xx_adc.o(i.ADC_CommonInit)
    ADC_GetConversionValue                   0x08000455   Thumb Code     8  stm32f4xx_adc.o(i.ADC_GetConversionValue)
    ADC_GetFlagStatus                        0x0800045d   Thumb Code    18  stm32f4xx_adc.o(i.ADC_GetFlagStatus)
    ADC_Init                                 0x08000471   Thumb Code    74  stm32f4xx_adc.o(i.ADC_Init)
    ADC_RegularChannelConfig                 0x080004c5   Thumb Code   184  stm32f4xx_adc.o(i.ADC_RegularChannelConfig)
    ADC_SoftwareStartConv                    0x0800057d   Thumb Code    10  stm32f4xx_adc.o(i.ADC_SoftwareStartConv)
    ADC_TempSensorVrefintCmd                 0x08000589   Thumb Code    34  stm32f4xx_adc.o(i.ADC_TempSensorVrefintCmd)
    BSP_init                                 0x080005b5   Thumb Code   122  main.o(i.BSP_init)
    BusFault_Handler                         0x0800062f   Thumb Code     4  stm32f4xx_it.o(i.BusFault_Handler)
    CAN1_RX0_IRQHandler                      0x08000635   Thumb Code    38  can_receive.o(i.CAN1_RX0_IRQHandler)
    CAN1_mode_init                           0x08000665   Thumb Code   264  can.o(i.CAN1_mode_init)
    CAN2_RX0_IRQHandler                      0x08000775   Thumb Code    38  can_receive.o(i.CAN2_RX0_IRQHandler)
    CAN2_mode_init                           0x080007a5   Thumb Code   268  can.o(i.CAN2_mode_init)
    CAN_ClearITPendingBit                    0x080008b9   Thumb Code   162  stm32f4xx_can.o(i.CAN_ClearITPendingBit)
    CAN_FilterInit                           0x08000961   Thumb Code   258  stm32f4xx_can.o(i.CAN_FilterInit)
    CAN_GetITStatus                          0x08000a69   Thumb Code   284  stm32f4xx_can.o(i.CAN_GetITStatus)
    CAN_ITConfig                             0x08000b89   Thumb Code    18  stm32f4xx_can.o(i.CAN_ITConfig)
    CAN_Init                                 0x08000b9b   Thumb Code   276  stm32f4xx_can.o(i.CAN_Init)
    CAN_Receive                              0x08000caf   Thumb Code   240  stm32f4xx_can.o(i.CAN_Receive)
    DMA2_Stream5_IRQHandler                  0x08000f39   Thumb Code    66  ins_task.o(i.DMA2_Stream5_IRQHandler)
    DMA_ClearFlag                            0x08000f91   Thumb Code    38  stm32f4xx_dma.o(i.DMA_ClearFlag)
    DMA_Cmd                                  0x08000fc5   Thumb Code    22  stm32f4xx_dma.o(i.DMA_Cmd)
    DMA_DeInit                               0x08000fdd   Thumb Code   324  stm32f4xx_dma.o(i.DMA_DeInit)
    DMA_DoubleBufferModeCmd                  0x08001135   Thumb Code    22  stm32f4xx_dma.o(i.DMA_DoubleBufferModeCmd)
    DMA_DoubleBufferModeConfig               0x0800114b   Thumb Code    24  stm32f4xx_dma.o(i.DMA_DoubleBufferModeConfig)
    DMA_GetCmdStatus                         0x08001163   Thumb Code    20  stm32f4xx_dma.o(i.DMA_GetCmdStatus)
    DMA_GetCurrDataCounter                   0x08001177   Thumb Code     8  stm32f4xx_dma.o(i.DMA_GetCurrDataCounter)
    DMA_GetCurrentMemoryTarget               0x0800117f   Thumb Code    20  stm32f4xx_dma.o(i.DMA_GetCurrentMemoryTarget)
    DMA_GetFlagStatus                        0x08001195   Thumb Code    54  stm32f4xx_dma.o(i.DMA_GetFlagStatus)
    DMA_Init                                 0x080011d9   Thumb Code    82  stm32f4xx_dma.o(i.DMA_Init)
    DMA_SetCurrDataCounter                   0x08001231   Thumb Code     4  stm32f4xx_dma.o(i.DMA_SetCurrDataCounter)
    DebugMon_Handler                         0x08001235   Thumb Code     2  stm32f4xx_it.o(i.DebugMon_Handler)
    DetectHook                               0x08001239   Thumb Code   288  detect_task.o(i.DetectHook)
    EXTI9_5_IRQHandler                       0x0800135d   Thumb Code    32  ins_task.o(i.EXTI9_5_IRQHandler)
    EXTI_ClearITPendingBit                   0x0800137d   Thumb Code     6  stm32f4xx_exti.o(i.EXTI_ClearITPendingBit)
    EXTI_GetITStatus                         0x08001389   Thumb Code    20  stm32f4xx_exti.o(i.EXTI_GetITStatus)
    GPIO_Init                                0x080013a1   Thumb Code   144  stm32f4xx_gpio.o(i.GPIO_Init)
    GPIO_PinAFConfig                         0x08001431   Thumb Code    70  stm32f4xx_gpio.o(i.GPIO_PinAFConfig)
    GPIO_ResetBits                           0x08001477   Thumb Code     4  stm32f4xx_gpio.o(i.GPIO_ResetBits)
    GPIO_SetBits                             0x0800147b   Thumb Code     4  stm32f4xx_gpio.o(i.GPIO_SetBits)
    HardFault_Handler                        0x0800147f   Thumb Code     4  stm32f4xx_it.o(i.HardFault_Handler)
    INS_cali_gyro                            0x08001485   Thumb Code    96  ins_task.o(i.INS_cali_gyro)
    INS_set_cali_gyro                        0x080014f9   Thumb Code    28  ins_task.o(i.INS_set_cali_gyro)
    MemManage_Handler                        0x08001519   Thumb Code     4  stm32f4xx_it.o(i.MemManage_Handler)
    NMI_Handler                              0x0800151d   Thumb Code     2  stm32f4xx_it.o(i.NMI_Handler)
    NVIC_Init                                0x08001521   Thumb Code   106  misc.o(i.NVIC_Init)
    NVIC_PriorityGroupConfig                 0x08001599   Thumb Code    10  misc.o(i.NVIC_PriorityGroupConfig)
    RCC_AHB1PeriphClockCmd                   0x080015ad   Thumb Code    26  stm32f4xx_rcc.o(i.RCC_AHB1PeriphClockCmd)
    RCC_APB1PeriphClockCmd                   0x080015cd   Thumb Code    26  stm32f4xx_rcc.o(i.RCC_APB1PeriphClockCmd)
    RCC_APB1PeriphResetCmd                   0x080015ed   Thumb Code    26  stm32f4xx_rcc.o(i.RCC_APB1PeriphResetCmd)
    RCC_APB2PeriphClockCmd                   0x0800160d   Thumb Code    26  stm32f4xx_rcc.o(i.RCC_APB2PeriphClockCmd)
    RCC_APB2PeriphResetCmd                   0x0800162d   Thumb Code    26  stm32f4xx_rcc.o(i.RCC_APB2PeriphResetCmd)
    RCC_GetClocksFreq                        0x0800164d   Thumb Code   214  stm32f4xx_rcc.o(i.RCC_GetClocksFreq)
    RC_Init                                  0x08001735   Thumb Code   312  rc.o(i.RC_Init)
    RC_unable                                0x08001881   Thumb Code    12  rc.o(i.RC_unable)
    SPI5_DMA_Enable                          0x0800196d   Thumb Code   104  spi.o(i.SPI5_DMA_Enable)
    SysTick_CLKSourceConfig                  0x08001b01   Thumb Code    40  misc.o(i.SysTick_CLKSourceConfig)
    SysTick_Handler                          0x08001b29   Thumb Code    16  freertos_middleware.o(i.SysTick_Handler)
    SystemInit                               0x08001b39   Thumb Code    88  system_stm32f4xx.o(i.SystemInit)
    TIM3_IRQHandler                          0x08001ba1   Thumb Code    40  freertos_middleware.o(i.TIM3_IRQHandler)
    TIM6_DAC_IRQHandler                      0x08001bd1   Thumb Code    30  can_receive.o(i.TIM6_DAC_IRQHandler)
    TIM6_Init                                0x08001bf5   Thumb Code   116  timer.o(i.TIM6_Init)
    TIM_ARRPreloadConfig                     0x08001c6d   Thumb Code    24  stm32f4xx_tim.o(i.TIM_ARRPreloadConfig)
    TIM_ClearFlag                            0x08001c85   Thumb Code     6  stm32f4xx_tim.o(i.TIM_ClearFlag)
    TIM_Cmd                                  0x08001c8b   Thumb Code    24  stm32f4xx_tim.o(i.TIM_Cmd)
    TIM_CtrlPWMOutputs                       0x08001ca3   Thumb Code    30  stm32f4xx_tim.o(i.TIM_CtrlPWMOutputs)
    TIM_DeInit                               0x08001cc1   Thumb Code   346  stm32f4xx_tim.o(i.TIM_DeInit)
    TIM_GetITStatus                          0x08001e51   Thumb Code    34  stm32f4xx_tim.o(i.TIM_GetITStatus)
    TIM_ITConfig                             0x08001e73   Thumb Code    18  stm32f4xx_tim.o(i.TIM_ITConfig)
    TIM_OC1Init                              0x08001e85   Thumb Code   114  stm32f4xx_tim.o(i.TIM_OC1Init)
    TIM_OC1PreloadConfig                     0x08001f01   Thumb Code    18  stm32f4xx_tim.o(i.TIM_OC1PreloadConfig)
    TIM_OC4Init                              0x08001f15   Thumb Code   112  stm32f4xx_tim.o(i.TIM_OC4Init)
    TIM_OC4PreloadConfig                     0x08001f8d   Thumb Code    26  stm32f4xx_tim.o(i.TIM_OC4PreloadConfig)
    TIM_SetCompare1                          0x08001fa7   Thumb Code     4  stm32f4xx_tim.o(i.TIM_SetCompare1)
    TIM_SetCompare4                          0x08001fab   Thumb Code     4  stm32f4xx_tim.o(i.TIM_SetCompare4)
    TIM_TimeBaseInit                         0x08001fb1   Thumb Code   104  stm32f4xx_tim.o(i.TIM_TimeBaseInit)
    USART1_IRQHandler                        0x08002035   Thumb Code   216  remote_control.o(i.USART1_IRQHandler)
    USART_ClearFlag                          0x08002125   Thumb Code    18  stm32f4xx_usart.o(i.USART_ClearFlag)
    USART_Cmd                                0x08002137   Thumb Code    24  stm32f4xx_usart.o(i.USART_Cmd)
    USART_DMACmd                             0x0800214f   Thumb Code    18  stm32f4xx_usart.o(i.USART_DMACmd)
    USART_DeInit                             0x08002161   Thumb Code   206  stm32f4xx_usart.o(i.USART_DeInit)
    USART_GetITStatus                        0x08002251   Thumb Code    84  stm32f4xx_usart.o(i.USART_GetITStatus)
    USART_ITConfig                           0x080022a5   Thumb Code    74  stm32f4xx_usart.o(i.USART_ITConfig)
    USART_Init                               0x080022f1   Thumb Code   204  stm32f4xx_usart.o(i.USART_Init)
    USART_ReceiveData                        0x080023c5   Thumb Code    10  stm32f4xx_usart.o(i.USART_ReceiveData)
    USART_SendData                           0x080023cf   Thumb Code     8  stm32f4xx_usart.o(i.USART_SendData)
    UsageFault_Handler                       0x080023d7   Thumb Code     4  stm32f4xx_it.o(i.UsageFault_Handler)
    buzzer_init                              0x080023dd   Thumb Code   174  buzzer.o(i.buzzer_init)
    buzzer_off                               0x08002495   Thumb Code    12  buzzer.o(i.buzzer_off)
    buzzer_on                                0x080024a5   Thumb Code    22  buzzer.o(i.buzzer_on)
    cali_param_init                          0x08002849   Thumb Code   168  calibrate_task.o(i.cali_param_init)
    cmd_cali_gimbal_hook                     0x08002901   Thumb Code   194  gimbal_task.o(i.cmd_cali_gimbal_hook)
    delay_init                               0x080029cd   Thumb Code    90  delay.o(i.delay_init)
    delay_ms                                 0x08002a39   Thumb Code    76  delay.o(i.delay_ms)
    delay_us                                 0x08002a89   Thumb Code    76  delay.o(i.delay_us)
    flash_read                               0x08002ad9   Thumb Code    32  flash.o(i.flash_read)
    flow_led_off                             0x08002af9   Thumb Code    20  led.o(i.flow_led_off)
    fric_PWM_configuration                   0x08002b11   Thumb Code   306  fric.o(i.fric_PWM_configuration)
    fric_off                                 0x08002c55   Thumb Code    24  fric.o(i.fric_off)
    get_temprate                             0x08002ca9   Thumb Code    80  adc.o(i.get_temprate)
    gyro_offset                              0x08002d05   Thumb Code    98  mpu6500driver.o(i.gyro_offset)
    laser_configuration                      0x08002d6d   Thumb Code    54  laser.o(i.laser_configuration)
    laser_on                                 0x08002da9   Thumb Code    14  laser.o(i.laser_on)
    led_configuration                        0x08002dbd   Thumb Code    94  led.o(i.led_configuration)
    led_green_off                            0x08002e29   Thumb Code    14  led.o(i.led_green_off)
    led_red_off                              0x08002e3d   Thumb Code    14  led.o(i.led_red_off)
    main                                     0x08002e51   Thumb Code    28  main.o(i.main)
    mpu6500_SPI_NS_H                         0x08002ea5   Thumb Code    12  mpu6500driver_middleware.o(i.mpu6500_SPI_NS_H)
    mpu6500_SPI_NS_L                         0x08002eb5   Thumb Code    12  mpu6500driver_middleware.o(i.mpu6500_SPI_NS_L)
    power_ctrl_configuration                 0x08002ec5   Thumb Code    66  power_ctrl.o(i.power_ctrl_configuration)
    power_ctrl_off                           0x08002f0d   Thumb Code    26  power_ctrl.o(i.power_ctrl_off)
    power_ctrl_on                            0x08002f2d   Thumb Code    26  power_ctrl.o(i.power_ctrl_on)
    remote_control_init                      0x08002f81   Thumb Code    16  remote_control.o(i.remote_control_init)
    set_cali_gimbal_hook                     0x08002f95   Thumb Code    28  gimbal_task.o(i.set_cali_gimbal_hook)
    temperature_ADC_init                     0x08002fe1   Thumb Code    80  adc.o(i.temperature_ADC_init)
    user_init                                0x08003035   Thumb Code   140  main.o(i.user_init)
    uxListRemove                             0x080030c9   Thumb Code    40  list.o(i.uxListRemove)
    vListInsertEnd                           0x080030f1   Thumb Code    24  list.o(i.vListInsertEnd)
    vPortValidateInterruptPriority           0x08003109   Thumb Code   106  port.o(i.vPortValidateInterruptPriority)
    vTaskNotifyGiveFromISR                   0x08003181   Thumb Code   216  tasks.o(i.vTaskNotifyGiveFromISR)
    vTaskSwitchContext                       0x08003271   Thumb Code   118  tasks.o(i.vTaskSwitchContext)
    xPortSysTickHandler                      0x080032fd   Thumb Code    46  port.o(i.xPortSysTickHandler)
    xTaskGetSchedulerState                   0x08003331   Thumb Code    24  tasks.o(i.xTaskGetSchedulerState)
    xTaskGetTickCount                        0x08003351   Thumb Code     6  tasks.o(i.xTaskGetTickCount)
    xTaskIncrementTick                       0x0800335d   Thumb Code   282  tasks.o(i.xTaskIncrementTick)
    _fp_init                                 0x080034a5   Thumb Code    10  fpinit.o(x$fpl$fpinit)
    __fplib_config_fpu_vfp                   0x080034ad   Thumb Code     0  fpinit.o(x$fpl$fpinit)
    __fplib_config_pureend_doubles           0x080034ad   Thumb Code     0  fpinit.o(x$fpl$fpinit)
    Region$$Table$$Base                      0x080034b0   Number         0  anon$$obj.o(Region$$Table)
    Region$$Table$$Limit                     0x080034d0   Number         0  anon$$obj.o(Region$$Table)
    SystemCoreClock                          0x20000000   Data           4  system_stm32f4xx.o(.data)
    AHBPrescTable                            0x20000004   Data          16  system_stm32f4xx.o(.data)
    pxCurrentTCB                             0x20000024   Data           4  tasks.o(.data)
    calibrate_task_stack                     0x20000074   Data           4  calibrate_task.o(.data)
    cali_hook_fun                            0x200000a0   Data          20  calibrate_task.o(.data)
    FreeRTOSRunTimeTicks                     0x200000d0   Data           8  freertos_middleware.o(.data)
    INSTaskStack                             0x200000dc   Data           4  ins_task.o(.data)
    __libspace_start                         0x20000a14   Data          96  libspace.o(.bss)
    __temporary_stack_top$libspace           0x20000a74   Data           0  libspace.o(.bss)



==============================================================================

Memory Map of the image

  Image Entry point : 0x080001ad

  Load Region LR_IROM1 (Base: 0x08000000, Size: 0x0000362c, Max: 0x00200000, ABSOLUTE, COMPRESSED[0x00003520])

    Execution Region ER_IROM1 (Base: 0x08000000, Size: 0x000034d0, Max: 0x00200000, ABSOLUTE)

    Base Addr    Size         Type   Attr      Idx    E Section Name        Object

    0x08000000   0x000001ac   Data   RO            3    RESET               startup_stm32f427xx.o
    0x080001ac   0x00000008   Code   RO         8977  * !!!main             c_w.l(__main.o)
    0x080001b4   0x00000034   Code   RO         9283    !!!scatter          c_w.l(__scatter.o)
    0x080001e8   0x0000005a   Code   RO         9281    !!dczerorl2         c_w.l(__dczerorl2.o)
    0x08000242   0x00000002   PAD
    0x08000244   0x0000001c   Code   RO         9285    !!handler_zi        c_w.l(__scatter_zi.o)
    0x08000260   0x00000002   Code   RO         9153    .ARM.Collect$$libinit$$00000000  c_w.l(libinit.o)
    0x08000262   0x00000004   Code   RO         9164    .ARM.Collect$$libinit$$00000001  c_w.l(libinit2.o)
    0x08000266   0x00000000   Code   RO         9167    .ARM.Collect$$libinit$$00000004  c_w.l(libinit2.o)
    0x08000266   0x00000000   Code   RO         9170    .ARM.Collect$$libinit$$0000000A  c_w.l(libinit2.o)
    0x08000266   0x00000000   Code   RO         9172    .ARM.Collect$$libinit$$0000000C  c_w.l(libinit2.o)
    0x08000266   0x00000000   Code   RO         9174    .ARM.Collect$$libinit$$0000000E  c_w.l(libinit2.o)
    0x08000266   0x00000000   Code   RO         9177    .ARM.Collect$$libinit$$00000011  c_w.l(libinit2.o)
    0x08000266   0x00000000   Code   RO         9179    .ARM.Collect$$libinit$$00000013  c_w.l(libinit2.o)
    0x08000266   0x00000000   Code   RO         9181    .ARM.Collect$$libinit$$00000015  c_w.l(libinit2.o)
    0x08000266   0x00000000   Code   RO         9183    .ARM.Collect$$libinit$$00000017  c_w.l(libinit2.o)
    0x08000266   0x00000000   Code   RO         9185    .ARM.Collect$$libinit$$00000019  c_w.l(libinit2.o)
    0x08000266   0x00000000   Code   RO         9187    .ARM.Collect$$libinit$$0000001B  c_w.l(libinit2.o)
    0x08000266   0x00000000   Code   RO         9189    .ARM.Collect$$libinit$$0000001D  c_w.l(libinit2.o)
    0x08000266   0x00000000   Code   RO         9191    .ARM.Collect$$libinit$$0000001F  c_w.l(libinit2.o)
    0x08000266   0x00000000   Code   RO         9193    .ARM.Collect$$libinit$$00000021  c_w.l(libinit2.o)
    0x08000266   0x00000000   Code   RO         9195    .ARM.Collect$$libinit$$00000023  c_w.l(libinit2.o)
    0x08000266   0x00000000   Code   RO         9197    .ARM.Collect$$libinit$$00000025  c_w.l(libinit2.o)
    0x08000266   0x00000000   Code   RO         9201    .ARM.Collect$$libinit$$0000002C  c_w.l(libinit2.o)
    0x08000266   0x00000000   Code   RO         9203    .ARM.Collect$$libinit$$0000002E  c_w.l(libinit2.o)
    0x08000266   0x00000000   Code   RO         9205    .ARM.Collect$$libinit$$00000030  c_w.l(libinit2.o)
    0x08000266   0x00000000   Code   RO         9207    .ARM.Collect$$libinit$$00000032  c_w.l(libinit2.o)
    0x08000266   0x00000002   Code   RO         9208    .ARM.Collect$$libinit$$00000033  c_w.l(libinit2.o)
    0x08000268   0x00000002   Code   RO         9239    .ARM.Collect$$libshutdown$$00000000  c_w.l(libshutdown.o)
    0x0800026a   0x00000000   Code   RO         9266    .ARM.Collect$$libshutdown$$00000003  c_w.l(libshutdown2.o)
    0x0800026a   0x00000000   Code   RO         9269    .ARM.Collect$$libshutdown$$00000006  c_w.l(libshutdown2.o)
    0x0800026a   0x00000000   Code   RO         9272    .ARM.Collect$$libshutdown$$00000009  c_w.l(libshutdown2.o)
    0x0800026a   0x00000000   Code   RO         9274    .ARM.Collect$$libshutdown$$0000000B  c_w.l(libshutdown2.o)
    0x0800026a   0x00000000   Code   RO         9277    .ARM.Collect$$libshutdown$$0000000E  c_w.l(libshutdown2.o)
    0x0800026a   0x00000002   Code   RO         9278    .ARM.Collect$$libshutdown$$0000000F  c_w.l(libshutdown2.o)
    0x0800026c   0x00000000   Code   RO         9041    .ARM.Collect$$rtentry$$00000000  c_w.l(__rtentry.o)
    0x0800026c   0x00000000   Code   RO         9110    .ARM.Collect$$rtentry$$00000002  c_w.l(__rtentry2.o)
    0x0800026c   0x00000006   Code   RO         9122    .ARM.Collect$$rtentry$$00000004  c_w.l(__rtentry4.o)
    0x08000272   0x00000000   Code   RO         9112    .ARM.Collect$$rtentry$$00000009  c_w.l(__rtentry2.o)
    0x08000272   0x00000004   Code   RO         9113    .ARM.Collect$$rtentry$$0000000A  c_w.l(__rtentry2.o)
    0x08000276   0x00000000   Code   RO         9115    .ARM.Collect$$rtentry$$0000000C  c_w.l(__rtentry2.o)
    0x08000276   0x00000008   Code   RO         9116    .ARM.Collect$$rtentry$$0000000D  c_w.l(__rtentry2.o)
    0x0800027e   0x00000002   Code   RO         9156    .ARM.Collect$$rtexit$$00000000  c_w.l(rtexit.o)
    0x08000280   0x00000000   Code   RO         9212    .ARM.Collect$$rtexit$$00000002  c_w.l(rtexit2.o)
    0x08000280   0x00000004   Code   RO         9213    .ARM.Collect$$rtexit$$00000003  c_w.l(rtexit2.o)
    0x08000284   0x00000006   Code   RO         9214    .ARM.Collect$$rtexit$$00000004  c_w.l(rtexit2.o)
    0x0800028a   0x00000002   PAD
    0x0800028c   0x000000b6   Code   RO         6325    .emb_text           port.o
    0x08000342   0x00000002   PAD
    0x08000344   0x0000004c   Code   RO            4    .text               startup_stm32f427xx.o
    0x08000390   0x00000006   Code   RO         8975    .text               c_w.l(heapauxi.o)
    0x08000396   0x00000002   PAD
    0x08000398   0x00000008   Code   RO         9137    .text               c_w.l(libspace.o)
    0x080003a0   0x0000004a   Code   RO         9140    .text               c_w.l(sys_stackheap_outer.o)
    0x080003ea   0x0000000c   Code   RO         9142    .text               c_w.l(exit.o)
    0x080003f6   0x00000002   PAD
    0x080003f8   0x0000000c   Code   RO         9209    .text               c_w.l(sys_exit.o)
    0x08000404   0x00000002   Code   RO         9228    .text               c_w.l(use_no_semi.o)
    0x08000406   0x00000000   Code   RO         9230    .text               c_w.l(indicate_semi.o)
    0x08000406   0x00000006   Code   RO          353    i.ADC_ClearFlag     stm32f4xx_adc.o
    0x0800040c   0x00000016   Code   RO          355    i.ADC_Cmd           stm32f4xx_adc.o
    0x08000422   0x00000002   PAD
    0x08000424   0x00000030   Code   RO          356    i.ADC_CommonInit    stm32f4xx_adc.o
    0x08000454   0x00000008   Code   RO          367    i.ADC_GetConversionValue  stm32f4xx_adc.o
    0x0800045c   0x00000012   Code   RO          368    i.ADC_GetFlagStatus  stm32f4xx_adc.o
    0x0800046e   0x00000002   PAD
    0x08000470   0x00000054   Code   RO          375    i.ADC_Init          stm32f4xx_adc.o
    0x080004c4   0x000000b8   Code   RO          380    i.ADC_RegularChannelConfig  stm32f4xx_adc.o
    0x0800057c   0x0000000a   Code   RO          382    i.ADC_SoftwareStartConv  stm32f4xx_adc.o
    0x08000586   0x00000002   PAD
    0x08000588   0x0000002c   Code   RO          385    i.ADC_TempSensorVrefintCmd  stm32f4xx_adc.o
    0x080005b4   0x0000007a   Code   RO         6870    i.BSP_init          main.o
    0x0800062e   0x00000004   Code   RO           13    i.BusFault_Handler  stm32f4xx_it.o
    0x08000632   0x00000002   PAD
    0x08000634   0x00000030   Code   RO         7803    i.CAN1_RX0_IRQHandler  can_receive.o
    0x08000664   0x00000110   Code   RO         7140    i.CAN1_mode_init    can.o
    0x08000774   0x00000030   Code   RO         7804    i.CAN2_RX0_IRQHandler  can_receive.o
    0x080007a4   0x00000114   Code   RO         7141    i.CAN2_mode_init    can.o
    0x080008b8   0x000000a8   Code   RO          597    i.CAN_ClearITPendingBit  stm32f4xx_can.o
    0x08000960   0x00000108   Code   RO          601    i.CAN_FilterInit    stm32f4xx_can.o
    0x08000a68   0x00000120   Code   RO          603    i.CAN_GetITStatus   stm32f4xx_can.o
    0x08000b88   0x00000012   Code   RO          607    i.CAN_ITConfig      stm32f4xx_can.o
    0x08000b9a   0x00000114   Code   RO          608    i.CAN_Init          stm32f4xx_can.o
    0x08000cae   0x000000f0   Code   RO          611    i.CAN_Receive       stm32f4xx_can.o
    0x08000d9e   0x00000002   PAD
    0x08000da0   0x00000184   Code   RO         7808    i.CAN_hook          can_receive.o
    0x08000f24   0x00000012   Code   RO          619    i.CheckITStatus     stm32f4xx_can.o
    0x08000f36   0x00000002   PAD
    0x08000f38   0x00000058   Code   RO         8366    i.DMA2_Stream5_IRQHandler  ins_task.o
    0x08000f90   0x00000034   Code   RO         1374    i.DMA_ClearFlag     stm32f4xx_dma.o
    0x08000fc4   0x00000016   Code   RO         1376    i.DMA_Cmd           stm32f4xx_dma.o
    0x08000fda   0x00000002   PAD
    0x08000fdc   0x00000158   Code   RO         1377    i.DMA_DeInit        stm32f4xx_dma.o
    0x08001134   0x00000016   Code   RO         1378    i.DMA_DoubleBufferModeCmd  stm32f4xx_dma.o
    0x0800114a   0x00000018   Code   RO         1379    i.DMA_DoubleBufferModeConfig  stm32f4xx_dma.o
    0x08001162   0x00000014   Code   RO         1381    i.DMA_GetCmdStatus  stm32f4xx_dma.o
    0x08001176   0x00000008   Code   RO         1382    i.DMA_GetCurrDataCounter  stm32f4xx_dma.o
    0x0800117e   0x00000014   Code   RO         1383    i.DMA_GetCurrentMemoryTarget  stm32f4xx_dma.o
    0x08001192   0x00000002   PAD
    0x08001194   0x00000044   Code   RO         1385    i.DMA_GetFlagStatus  stm32f4xx_dma.o
    0x080011d8   0x00000058   Code   RO         1388    i.DMA_Init          stm32f4xx_dma.o
    0x08001230   0x00000004   Code   RO         1391    i.DMA_SetCurrDataCounter  stm32f4xx_dma.o
    0x08001234   0x00000002   Code   RO           14    i.DebugMon_Handler  stm32f4xx_it.o
    0x08001236   0x00000002   PAD
    0x08001238   0x00000124   Code   RO         8046    i.DetectHook        detect_task.o
    0x0800135c   0x00000020   Code   RO         8367    i.EXTI9_5_IRQHandler  ins_task.o
    0x0800137c   0x0000000c   Code   RO         1660    i.EXTI_ClearITPendingBit  stm32f4xx_exti.o
    0x08001388   0x00000018   Code   RO         1664    i.EXTI_GetITStatus  stm32f4xx_exti.o
    0x080013a0   0x00000090   Code   RO         2221    i.GPIO_Init         stm32f4xx_gpio.o
    0x08001430   0x00000046   Code   RO         2222    i.GPIO_PinAFConfig  stm32f4xx_gpio.o
    0x08001476   0x00000004   Code   RO         2228    i.GPIO_ResetBits    stm32f4xx_gpio.o
    0x0800147a   0x00000004   Code   RO         2229    i.GPIO_SetBits      stm32f4xx_gpio.o
    0x0800147e   0x00000004   Code   RO           15    i.HardFault_Handler  stm32f4xx_it.o
    0x08001482   0x00000002   PAD
    0x08001484   0x00000074   Code   RO         8371    i.INS_cali_gyro     ins_task.o
    0x080014f8   0x00000020   Code   RO         8372    i.INS_set_cali_gyro  ins_task.o
    0x08001518   0x00000004   Code   RO           16    i.MemManage_Handler  stm32f4xx_it.o
    0x0800151c   0x00000002   Code   RO           17    i.NMI_Handler       stm32f4xx_it.o
    0x0800151e   0x00000002   PAD
    0x08001520   0x00000078   Code   RO          301    i.NVIC_Init         misc.o
    0x08001598   0x00000014   Code   RO          302    i.NVIC_PriorityGroupConfig  misc.o
    0x080015ac   0x00000020   Code   RO         3159    i.RCC_AHB1PeriphClockCmd  stm32f4xx_rcc.o
    0x080015cc   0x00000020   Code   RO         3168    i.RCC_APB1PeriphClockCmd  stm32f4xx_rcc.o
    0x080015ec   0x00000020   Code   RO         3170    i.RCC_APB1PeriphResetCmd  stm32f4xx_rcc.o
    0x0800160c   0x00000020   Code   RO         3171    i.RCC_APB2PeriphClockCmd  stm32f4xx_rcc.o
    0x0800162c   0x00000020   Code   RO         3173    i.RCC_APB2PeriphResetCmd  stm32f4xx_rcc.o
    0x0800164c   0x000000e8   Code   RO         3180    i.RCC_GetClocksFreq  stm32f4xx_rcc.o
    0x08001734   0x0000014c   Code   RO         7520    i.RC_Init           rc.o
    0x08001880   0x00000010   Code   RO         7522    i.RC_unable         rc.o
    0x08001890   0x000000da   Code   RO         8503    i.SBUS_TO_RC        remote_control.o
    0x0800196a   0x00000002   PAD
    0x0800196c   0x00000074   Code   RO         7600    i.SPI5_DMA_Enable   spi.o
    0x080019e0   0x00000120   Code   RO          184    i.SetSysClock       system_stm32f4xx.o
    0x08001b00   0x00000028   Code   RO          305    i.SysTick_CLKSourceConfig  misc.o
    0x08001b28   0x00000010   Code   RO         8097    i.SysTick_Handler   freertos_middleware.o
    0x08001b38   0x00000068   Code   RO          186    i.SystemInit        system_stm32f4xx.o
    0x08001ba0   0x00000030   Code   RO         8098    i.TIM3_IRQHandler   freertos_middleware.o
    0x08001bd0   0x00000024   Code   RO         7809    i.TIM6_DAC_IRQHandler  can_receive.o
    0x08001bf4   0x00000078   Code   RO         7659    i.TIM6_Init         timer.o
    0x08001c6c   0x00000018   Code   RO         4546    i.TIM_ARRPreloadConfig  stm32f4xx_tim.o
    0x08001c84   0x00000006   Code   RO         4552    i.TIM_ClearFlag     stm32f4xx_tim.o
    0x08001c8a   0x00000018   Code   RO         4558    i.TIM_Cmd           stm32f4xx_tim.o
    0x08001ca2   0x0000001e   Code   RO         4560    i.TIM_CtrlPWMOutputs  stm32f4xx_tim.o
    0x08001cc0   0x00000190   Code   RO         4563    i.TIM_DeInit        stm32f4xx_tim.o
    0x08001e50   0x00000022   Code   RO         4579    i.TIM_GetITStatus   stm32f4xx_tim.o
    0x08001e72   0x00000012   Code   RO         4583    i.TIM_ITConfig      stm32f4xx_tim.o
    0x08001e84   0x0000007c   Code   RO         4587    i.TIM_OC1Init       stm32f4xx_tim.o
    0x08001f00   0x00000012   Code   RO         4590    i.TIM_OC1PreloadConfig  stm32f4xx_tim.o
    0x08001f12   0x00000002   PAD
    0x08001f14   0x00000078   Code   RO         4602    i.TIM_OC4Init       stm32f4xx_tim.o
    0x08001f8c   0x0000001a   Code   RO         4604    i.TIM_OC4PreloadConfig  stm32f4xx_tim.o
    0x08001fa6   0x00000004   Code   RO         4620    i.TIM_SetCompare1   stm32f4xx_tim.o
    0x08001faa   0x00000004   Code   RO         4623    i.TIM_SetCompare4   stm32f4xx_tim.o
    0x08001fae   0x00000002   PAD
    0x08001fb0   0x00000084   Code   RO         4630    i.TIM_TimeBaseInit  stm32f4xx_tim.o
    0x08002034   0x000000f0   Code   RO         8504    i.USART1_IRQHandler  remote_control.o
    0x08002124   0x00000012   Code   RO         5108    i.USART_ClearFlag   stm32f4xx_usart.o
    0x08002136   0x00000018   Code   RO         5112    i.USART_Cmd         stm32f4xx_usart.o
    0x0800214e   0x00000012   Code   RO         5113    i.USART_DMACmd      stm32f4xx_usart.o
    0x08002160   0x000000f0   Code   RO         5114    i.USART_DeInit      stm32f4xx_usart.o
    0x08002250   0x00000054   Code   RO         5116    i.USART_GetITStatus  stm32f4xx_usart.o
    0x080022a4   0x0000004a   Code   RO         5118    i.USART_ITConfig    stm32f4xx_usart.o
    0x080022ee   0x00000002   PAD
    0x080022f0   0x000000d4   Code   RO         5119    i.USART_Init        stm32f4xx_usart.o
    0x080023c4   0x0000000a   Code   RO         5126    i.USART_ReceiveData  stm32f4xx_usart.o
    0x080023ce   0x00000008   Code   RO         5129    i.USART_SendData    stm32f4xx_usart.o
    0x080023d6   0x00000004   Code   RO           18    i.UsageFault_Handler  stm32f4xx_it.o
    0x080023da   0x00000002   PAD
    0x080023dc   0x000000b8   Code   RO         7101    i.buzzer_init       buzzer.o
    0x08002494   0x00000010   Code   RO         7102    i.buzzer_off        buzzer.o
    0x080024a4   0x0000001c   Code   RO         7103    i.buzzer_on         buzzer.o
    0x080024c0   0x00000180   Code   RO         8242    i.calc_gimbal_cali  gimbal_task.o
    0x08002640   0x000000ec   Code   RO         7696    i.cali_data_read    calibrate_task.o
    0x0800272c   0x0000006c   Code   RO         7698    i.cali_gimbal_hook  calibrate_task.o
    0x08002798   0x0000005c   Code   RO         7699    i.cali_gyro_hook    calibrate_task.o
    0x080027f4   0x00000054   Code   RO         7700    i.cali_head_hook    calibrate_task.o
    0x08002848   0x000000b8   Code   RO         7701    i.cali_param_init   calibrate_task.o
    0x08002900   0x000000cc   Code   RO         8243    i.cmd_cali_gimbal_hook  gimbal_task.o
    0x080029cc   0x0000006c   Code   RO         7173    i.delay_init        delay.o
    0x08002a38   0x00000050   Code   RO         7174    i.delay_ms          delay.o
    0x08002a88   0x00000050   Code   RO         7175    i.delay_us          delay.o
    0x08002ad8   0x00000020   Code   RO         7244    i.flash_read        flash.o
    0x08002af8   0x00000018   Code   RO         7394    i.flow_led_off      led.o
    0x08002b10   0x00000144   Code   RO         7312    i.fric_PWM_configuration  fric.o
    0x08002c54   0x0000001c   Code   RO         7313    i.fric_off          fric.o
    0x08002c70   0x00000038   Code   RO         7058    i.get_ADC           adc.o
    0x08002ca8   0x0000005c   Code   RO         7059    i.get_temprate      adc.o
    0x08002d04   0x00000068   Code   RO         6628    i.gyro_offset       mpu6500driver.o
    0x08002d6c   0x0000003c   Code   RO         7355    i.laser_configuration  laser.o
    0x08002da8   0x00000014   Code   RO         7357    i.laser_on          laser.o
    0x08002dbc   0x0000006c   Code   RO         7397    i.led_configuration  led.o
    0x08002e28   0x00000014   Code   RO         7398    i.led_green_off     led.o
    0x08002e3c   0x00000014   Code   RO         7401    i.led_red_off       led.o
    0x08002e50   0x00000020   Code   RO         6871    i.main              main.o
    0x08002e70   0x00000034   Code   RO         8249    i.motor_ecd_to_angle_change  gimbal_task.o
    0x08002ea4   0x00000010   Code   RO         6683    i.mpu6500_SPI_NS_H  mpu6500driver_middleware.o
    0x08002eb4   0x00000010   Code   RO         6684    i.mpu6500_SPI_NS_L  mpu6500driver_middleware.o
    0x08002ec4   0x00000048   Code   RO         7475    i.power_ctrl_configuration  power_ctrl.o
    0x08002f0c   0x00000020   Code   RO         7476    i.power_ctrl_off    power_ctrl.o
    0x08002f2c   0x00000020   Code   RO         7477    i.power_ctrl_on     power_ctrl.o
    0x08002f4c   0x00000034   Code   RO         5785    i.prvResetNextTaskUnblockTime  tasks.o
    0x08002f80   0x00000014   Code   RO         8506    i.remote_control_init  remote_control.o
    0x08002f94   0x00000020   Code   RO         8250    i.set_cali_gimbal_hook  gimbal_task.o
    0x08002fb4   0x0000002c   Code   RO         7060    i.temperature_ADC_Reset  adc.o
    0x08002fe0   0x00000054   Code   RO         7061    i.temperature_ADC_init  adc.o
    0x08003034   0x00000094   Code   RO         6872    i.user_init         main.o
    0x080030c8   0x00000028   Code   RO         5504    i.uxListRemove      list.o
    0x080030f0   0x00000018   Code   RO         5508    i.vListInsertEnd    list.o
    0x08003108   0x00000078   Code   RO         6331    i.vPortValidateInterruptPriority  port.o
    0x08003180   0x000000f0   Code   RO         5806    i.vTaskNotifyGiveFromISR  tasks.o
    0x08003270   0x0000008c   Code   RO         5818    i.vTaskSwitchContext  tasks.o
    0x080032fc   0x00000034   Code   RO         6333    i.xPortSysTickHandler  port.o
    0x08003330   0x00000020   Code   RO         5825    i.xTaskGetSchedulerState  tasks.o
    0x08003350   0x0000000c   Code   RO         5826    i.xTaskGetTickCount  tasks.o
    0x0800335c   0x00000148   Code   RO         5828    i.xTaskIncrementTick  tasks.o
    0x080034a4   0x0000000a   Code   RO         9224    x$fpl$fpinit        g_wm.l(fpinit.o)
    0x080034ae   0x00000002   PAD
    0x080034b0   0x00000020   Data   RO         9279    Region$$Table       anon$$obj.o


    Execution Region RW_IRAM1 (Base: 0x20000000, Size: 0x00000e78, Max: 0x00030000, ABSOLUTE, COMPRESSED[0x00000050])

    Base Addr    Size         Type   Attr      Idx    E Section Name        Object

    0x20000000   0x00000014   Data   RW          187    .data               system_stm32f4xx.o
    0x20000014   0x00000010   Data   RW         3212    .data               stm32f4xx_rcc.o
    0x20000024   0x0000003c   Data   RW         5837    .data               tasks.o
    0x20000060   0x0000000c   Data   RW         6334    .data               port.o
    0x2000006c   0x00000008   Data   RW         7176    .data               delay.o
    0x20000074   0x00000054   Data   RW         7707    .data               calibrate_task.o
    0x200000c8   0x00000001   Data   RW         7815    .data               can_receive.o
    0x200000c9   0x00000007   PAD
    0x200000d0   0x00000008   Data   RW         8100    .data               freertos_middleware.o
    0x200000d8   0x00000080   Data   RW         8378    .data               ins_task.o
    0x20000158   0x00000002   Data   RW         8510    .data               remote_control.o
    0x2000015a   0x00000002   PAD
    0x2000015c   0x000002e4   Zero   RW         5836    .bss                tasks.o
    0x20000440   0x0000009d   Zero   RW         7705    .bss                calibrate_task.o
    0x200004dd   0x00000003   PAD
    0x200004e0   0x00000084   Zero   RW         7814    .bss                can_receive.o
    0x20000564   0x00000144   Zero   RW         8051    .bss                detect_task.o
    0x200006a8   0x000001e8   Zero   RW         8251    .bss                gimbal_task.o
    0x20000890   0x00000124   Zero   RW         8376    .bss                ins_task.o
    0x200009b4   0x0000005e   Zero   RW         8509    .bss                remote_control.o
    0x20000a12   0x00000002   PAD
    0x20000a14   0x00000060   Zero   RW         9138    .bss                c_w.l(libspace.o)
    0x20000a74   0x00000004   PAD
    0x20000a78   0x00000000   Zero   RW            2    HEAP                startup_stm32f427xx.o
    0x20000a78   0x00000400   Zero   RW            1    STACK               startup_stm32f427xx.o


==============================================================================

Image component sizes


      Code (inc. data)   RO Data    RW Data    ZI Data      Debug   Object Name

       276         26          0          0          0       2306   adc.o
       228         20          0          0          0       1887   buzzer.o
       704         38          0         84        157      16588   calibrate_task.o
       548         16          0          0          0       2030   can.o
       520         56          0          1        132       4638   can_receive.o
         0          0          0          0          0       1580   chassis_behaviour.o
         0          0          0          0          0       7236   croutine.o
       268         26          0          8          0       2179   delay.o
       292          4          0          0        324       2579   detect_task.o
         0          0          0          0          0       7960   event_groups.o
        32          0          0          0          0       1097   flash.o
        64          8          0          8          0       1903   freertos_middleware.o
       352         22          0          0          0       1320   fric.o
         0          0          0          0          0       3756   gimbal_behaviour.o
       672         22          0          0        488       5338   gimbal_task.o
       268         46          0        128        292       8072   ins_task.o
        80         12          0          0          0       1077   laser.o
       172         30          0          0          0       2125   led.o
        64          0          0          0          0       1580   list.o
       302         12          0          0          0      17890   main.o
       180         24          0          0          0       2089   misc.o
       104          6          0          0          0       2478   mpu6500driver.o
        32          8          0          0          0       1070   mpu6500driver_middleware.o
       354         36          0         12          0       5183   port.o
       136         18          0          0          0       1832   power_ctrl.o
       348         24          0          0          0       1778   rc.o
       478         28          0          2         94       4214   remote_control.o
       116         12          0          0          0        594   spi.o
        76         28        428          0       1024        896   startup_stm32f427xx.o
       424         34          0          0          0       6629   stm32f4xx_adc.o
      1272         16          0          0          0       5675   stm32f4xx_can.o
       672         54          0          0          0       8043   stm32f4xx_dma.o
        36         10          0          0          0       1132   stm32f4xx_exti.o
       222          0          0          0          0       2875   stm32f4xx_gpio.o
        20          0          0          0          0     335233   stm32f4xx_it.o
       392         48          0         16          0       5865   stm32f4xx_rcc.o
       964        100          0          0          0       9345   stm32f4xx_tim.o
       688         42          0          0          0       6659   stm32f4xx_usart.o
       392         32          0         20          0     315101   system_stm32f4xx.o
       804        116          0         60        740       8515   tasks.o
       120          4          0          0          0        700   timer.o

    ----------------------------------------------------------------------
     12706        978        460        348       3256     819047   Object Totals
         0          0         32          0          0          0   (incl. Generated)
        34          0          0          9          5          0   (incl. Padding)

    ----------------------------------------------------------------------

      Code (inc. data)   RO Data    RW Data    ZI Data      Debug   Library Member Name

        90          0          0          0          0          0   __dczerorl2.o
         8          0          0          0          0         68   __main.o
         0          0          0          0          0          0   __rtentry.o
        12          0          0          0          0          0   __rtentry2.o
         6          0          0          0          0          0   __rtentry4.o
        52          8          0          0          0          0   __scatter.o
        28          0          0          0          0          0   __scatter_zi.o
        12          0          0          0          0         72   exit.o
         6          0          0          0          0        152   heapauxi.o
         0          0          0          0          0          0   indicate_semi.o
         2          0          0          0          0          0   libinit.o
         6          0          0          0          0          0   libinit2.o
         2          0          0          0          0          0   libshutdown.o
         2          0          0          0          0          0   libshutdown2.o
         8          4          0          0         96         68   libspace.o
         2          0          0          0          0          0   rtexit.o
        10          0          0          0          0          0   rtexit2.o
        12          4          0          0          0         68   sys_exit.o
        74          0          0          0          0         80   sys_stackheap_outer.o
         2          0          0          0          0         68   use_no_semi.o
        10          0          0          0          0        116   fpinit.o

    ----------------------------------------------------------------------
       354         16          0          0        100        692   Library Totals
        10          0          0          0          4          0   (incl. Padding)

    ----------------------------------------------------------------------

      Code (inc. data)   RO Data    RW Data    ZI Data      Debug   Library Name

       334         16          0          0         96        576   c_w.l
        10          0          0          0          0        116   g_wm.l

    ----------------------------------------------------------------------
       354         16          0          0        100        692   Library Totals

    ----------------------------------------------------------------------

==============================================================================


      Code (inc. data)   RO Data    RW Data    ZI Data      Debug   

     13060        994        460        348       3356     806283   Grand Totals
     13060        994        460         80       3356     806283   ELF Image Totals (compressed)
     13060        994        460         80          0          0   ROM Totals

==============================================================================

    Total RO  Size (Code + RO Data)                13520 (  13.20kB)
    Total RW  Size (RW Data + ZI Data)              3704 (   3.62kB)
    Total ROM Size (Code + RO Data + RW Data)      13600 (  13.28kB)

==============================================================================

