:020000040800F2
:10000000780E0020450300081D1500087F14000825
:10001000191500082F060008D7230008000000006B
:100020000000000000000000000000008D02000839
:100030003512000800000000E1020008291B00083A
:1000400069030008690300086903000869030008E0
:1000500069030008690300086903000869030008D0
:1000600069030008690300086903000869030008C0
:1000700069030008690300086903000869030008B0
:1000800069030008690300086903000869030008A0
:100090003506000869030008690300085D130008BD
:1000A0006903000869030008690300086903000880
:1000B00069030008A11B0008690300086903000820
:1000C0006903000869030008690300086903000860
:1000D0006903000835200008690300086903000867
:1000E0006903000869030008690300086903000840
:1000F0006903000869030008690300086903000830
:10010000690300086903000869030008690300081F
:100110006903000869030008D11B0008690300088F
:1001200069030008690300086903000869030008FF
:1001300069030008690300086903000869030008EF
:1001400075070008690300086903000869030008CF
:10015000390F0008690300086903000869030008F3
:1001600069030008690300086903000869030008BF
:100170006903000869030008690300080000000023
:10018000690300086903000869030008690300089F
:10019000690300086903000869030008690300088F
:1001A00000000000000000006903000800F002F8F1
:1001B00000F05CF80AA090E8000C82448344AAF1A5
:1001C0000107DA4501D100F051F8AFF2090EBAE8A3
:1001D0000F0013F0010F18BFFB1A43F0010318477B
:1001E000D0320000F03200000A444FF0000C10F84A
:1001F000013B13F0070408BF10F8014B1D1108BFA5
:1002000010F8015B641E05D010F8016B641E01F844
:10021000016BF9D113F0080F1EBF10F8014BAD1C94
:100220000C1B09D16D1E58BF01F801CBFAD505E0B2
:1002300014F8016B01F8016B6D1EF9D59142D6D30C
:10024000704700000023002400250026103A28BF34
:1002500078C1FBD8520728BF30C148BF0B60704738
:100260001FB503F01FF91FBD10B510BD00F098F8C1
:100270001146FFF7F5FF02F0EBFD00F0B6F803B40E
:10028000FFF7F2FF03BC00F0B7F800002A4B196833
:100290000868B0E8F04F80F30988BFF36F8F4FF024
:1002A000000080F3118870470000000006480068D5
:1002B000006880F3088862B661B6BFF34F8FBFF362
:1002C0006F8F00DF00BF00BF08ED00E0DFF80C001B
:1002D000016841F470010160704700BF88ED00E0E3
:1002E000EFF30980BFF36F8F134B1A681EF0100FE6
:1002F00008BF20ED108A20E9F04F106008B44FF0DD
:10030000500080F31188BFF34F8FBFF36F8F02F05F
:10031000AFFF4FF0000080F3118808BC196808682F
:10032000B0E8F04F1EF0100F08BFB0EC108A80F359
:100330000988BFF36F8F704724000020EFF305801A
:10034000704700000C48016841F4700101600B48DF
:1003500080470B480047FEE7FEE7FEE7FEE7FEE7C3
:10036000FEE7FEE7FEE7FEE7FEE700000548064978
:10037000044A064B7047000088ED00E0391B000876
:10038000AD010008780A0020780E0020780A0020CD
:10039000704770477047000000487047140A0020FB
:1003A0007546FFF7F9FFAE4605006946534620F053
:1003B0000700854618B020B5FFF7D8FFBDE82040FC
:1003C0004FF000064FF000074FF000084FF0000B11
:1003D00021F00701AC46ACE8C009ACE8C009ACE8C4
:1003E000C009ACE8C0098D4670470446AFF30080F1
:1003F0002046FFF744FF000001491820ABBEFEE78E
:10040000260002007047CA430260704721B182682B
:1004100042F00102826003E0826822F00102826001
:10042000704700000021084A1168084A1140D0E9CD
:1004300000231A4383681A43C3681A431143044ACA
:10044000C2F804137047000004230140E030FCFFB1
:10045000002001400146C86C80B27047024600206F
:1004600013680B400BB1012000E000207047000032
:1004700030B50246002000235068104C20400D7912
:100480000C6844EA05242043506090680C4C2040DE
:10049000D1E903542C438D682C434D7944EA45043B
:1004A00020439060D06A20F470000C7D641EE4B29A
:1004B000234340EA0350D06230BD0000FFFEFFFC42
:1004C000FDF7FFC0F0B504460D4600200021092DC0
:1004D00011DDE068A5F10A0606EB4607072606FAD5
:1004E00007F18843A5F10A0606EB460603FA06F172
:1004F0000843E0600CE0206905EB4507072606FA93
:1005000007F1884305EB450603FA06F1084320612D
:10051000072A0FDA606B561E06EB86071F2606FABF
:1005200007F18843561E06EB860605FA06F10843D6
:10053000606322E00D2A0FDA206BD61F06EB8607D8
:100540001F2606FA07F18843D61F06EB860605FA32
:1005500006F10843206310E0E06AA2F10D0606EB05
:1005600086071F2606FA07F18843A2F10D0606EB5F
:10057000860605FA06F10843E062F0BD816841F0A5
:10058000804181607047000038B10849096841F432
:100590000001074AC2F8041306E00449096821F47F
:1005A0000001034AC2F8041370470000042301400D
:1005B0000020014038B54FF4407000F0EDFF4FF4DB
:1005C0007A7002F003FA02F0F9FB02F009FD02F082
:1005D00079FC02F09DFA5A2147F2305001F0FEFEFC
:1005E00002F0C4FB5A214EF6602001F003FB00200C
:1005F00005231A460121009000F034F8002005235D
:100600001A460121009000F0CDF8002408E02046B1
:1006100002F08CFC40F2C52002F036FA601CC4B235
:10062000042CF4DB02F0ACFC02F00EF938BD00BF84
:10063000FEE7000010B50221084800F015FA58B195
:100640000221064800F038F9054A0021034800F06D
:100650002EFB034800F0A4FB10BD00000064004026
:100660003C0500202DE9F0418AB004460D461646AF
:100670001F46DDF840800121082000F097FF01218E
:10068000480600F0A3FF0121480600F0AFFF00215B
:100690004FF0007000F0AAFF0320089002208DF8B0
:1006A000240000208DF8260003208DF8250001206D
:1006B0008DF8270008A92D4800F072FE09220021BC
:1006C0002A4800F0B5FE09220121284800F0B0FEBA
:1006D00000208DF81A0001208DF81B0000208DF8F5
:1006E0001C008DF81D008DF81E008DF81F008DF880
:1006F00016808DF817408DF818608DF81950ADF8F8
:10070000147005A91A4800F048FA00208DF80E0070
:100710008DF80F0001208DF810000020ADF80400C6
:10072000ADF80600ADF80800ADF80A00ADF80C0011
:1007300001208DF8110001A800F012F90122022118
:100740000B4800F021FA14208DF8000004208DF8E9
:10075000010000208DF8020001208DF8030068469A
:1007600000F0DEFE00200AB0BDE8F081000C02407F
:100770000064004010B50221084800F075F958B136
:100780000221064800F098F8054A0021034800F0CD
:100790008EFA034800F004FB10BD00000068004022
:1007A000500500202DE9F0418AB004460D4616465A
:1007B0001F46DDF840800121022000F0F7FE0121F4
:1007C000880600F003FF0121880600F00FFF0021DA
:1007D0004FF0806000F00AFF4FF440500890022074
:1007E0008DF8240000208DF8260003208DF82500C8
:1007F00001208DF8270008A92D4800F0D1FD09221D
:100800000C212B4800F014FE09220D21284800F08D
:100810000FFE00208DF81A0001208DF81B0000202B
:100820008DF81C008DF81D008DF81E008DF81F003E
:100830008DF816808DF817408DF818608DF81950D6
:10084000ADF8147005A91B4800F0A7F90E208DF82B
:100850000E0000208DF80F0001208DF81000002000
:10086000ADF80400ADF80600ADF80800ADF80A00D8
:10087000ADF80C0001208DF8110001A800F070F80F
:10088000012202210B4800F07FF940208DF8000082
:1008900004208DF8010000208DF8020001208DF861
:1008A0000300684600F03CFE00200AB0BDE8F0817D
:1008B0000004024000680040B1F5007F3AD00FDC30
:1008C000202928D006DC01291CD004291DD00829A4
:1008D00040D11DE0402921D0B1F5807F3AD126E0FA
:1008E000B1F5004F31D006DCB1F5806F25D0B1F500
:1008F000006F2FD124E0B1F5803F12D0B1F5003F59
:1009000028D111E0154A826025E00822C26022E069
:100910001022C2601FE0082202611CE01022026166
:1009200019E00822426016E01022426013E004221F
:10093000426010E0042242600DE0042242600AE0BE
:10094000002282610422426005E0002282610422CA
:10095000426000E000BF00BF7047000001010100DD
:1009600010B50021837A012202FA03F13D4A126890
:1009700042F001023B4B1A603A4A1C3212688A4329
:10098000384B1C331A60027BCAB9364A0C321268E3
:100990008A43344B0C331A604288C38842EA0343CB
:1009A000304A4032847A42F834300288838842EAFE
:1009B00003432C4A4032847A02EBC4025360027B28
:1009C000012A19D1274A0C3212680A43254B0C33ED
:1009D0001A604288038842EA0343224A4032847AFA
:1009E00042F83430C288838842EA03431D4A4032C9
:1009F000847A02EBC4025360C27A3AB9194A121DD2
:100A000012688A43174B1B1D1A6006E0154A121D17
:100A100012680A43134B1B1D1A60028932B9114A2E
:100A2000143212688A430F4B14331A600289012A68
:100A300006D10C4A143212680A430A4B14331A6066
:100A4000427B012A06D1074A1C3212680A43054B31
:100A50001C331A60034A126822F00102014B1A602B
:100A600010BD00000066004070B504460D4600262B
:100A700060692840002871D0B5F5807F5CD010DC1B
:100A8000082D35D006DC012D20D0022D24D0042DD8
:100A900072D127E0102D31D0202D35D0402D6BD1D3
:100AA00038E0B5F5004F60D009DCB5F5007F49D0DE
:100AB000B5F5806F4CD0B5F5006F5DD14FE0B5F561
:100AC000803F2DD0B5F5003F56D12FE0A0682D49CD
:100AD00000F028FA064651E0E068032100F022FA0F
:100AE00006464BE0E068082100F01CFA064645E0A7
:100AF000E068102100F016FA06463FE02069032165
:100B000000F010FA064639E02069082100F00AFAE0
:100B1000064633E02069102100F004FA06462DE075
:100B20006068082100F0FEF9064627E060681021A1
:100B300000F0F8F9064621E0A069012100F0F2F981
:100B400006461BE0A069022100F0ECF9064615E01C
:100B5000A069042100F0E6F906460FE00FE0A06965
:100B6000702100F0DFF9064608E06068042100F01B
:100B7000D9F9064602E0FFE7002600BF00E00026A4
:100B8000304670BD010101001AB143690B43436156
:100B900002E043698B434361704730B50246002051
:100BA0000023146824F002041460146844F0010463
:100BB000146000E05B1C546804F001041CB94FF69B
:100BC000FF74A342F6D1546804F001040CB900206C
:100BD0006CE08C79012C04D1146844F0800414601A
:100BE00003E0146824F080041460CC79012C04D153
:100BF000146844F04004146003E0146824F04004D6
:100C000014600C7A012C04D1146844F020041460A0
:100C100003E0146824F0200414604C7A012C04D101
:100C2000146844F01004146003E0146824F0100405
:100C300014608C7A012C04D1146844F00804146008
:100C400003E0146824F008041460CC7A012C04D169
:100C5000146844F00404146003E0146824F00404ED
:100C600014608C78A407CD7844EA05640D7944EAD1
:100C700005444D7944EA05540D886D1E2C43D4611A
:100C8000146824F001041460002300E05B1C546825
:100C900004F001041CB14FF6FF74A342F6D154686E
:100CA00004F001040CB1002000E0012030BD10B5BB
:100CB00000F5D87303EB01131B6803F004031372F0
:100CC000137A53B900F5D87303EB01131B6840F294
:100CD000FF7404EA5353136009E000F5D87303EB83
:100CE00001131B686FF0604404EAD303536000F5FE
:100CF000D87303EB01131B6803F00203537200F572
:100D0000D87303EB01135B6803F00F03937200F5D4
:100D1000D87303EB01135B681B0AD37400F5D87317
:100D200003EB01139B68D37200F5D87303EB011337
:100D30009B681C0A147300F5D87303EB01139B68BE
:100D40001C0C547300F5D87303EB01139B681B0E46
:100D5000937300F5D87303EB0113DB68D37300F5CD
:100D6000D87303EB0113DB681C0A147400F5D87305
:100D700003EB0113DB681C0C547400F5D87303EB10
:100D80000113DB681B0E937421B9C36843F0200381
:100D9000C36003E0036943F02003036110BD00005A
:100DA00010B504462068A0F2012007287ED2DFE8B3
:100DB00000F061626364042342005548008800B279
:100DC00053490881207BE17A40EA0120504908809C
:100DD000A17B607B41EA002000B24D498880217CE4
:100DE000E07B41EA002000B249494880607C88717C
:100DF000012000F021FA88E04648008800B2454909
:100E00000881207BE17A40EA012042490880A17BE9
:100E1000607B41EA002000B23E498880217CE07B73
:100E200041EA002000B23B494880607C8871022082
:100E300000F002FA69E03848008800B236490881BB
:100E4000207BE17A40EA012033490880A17B607B66
:100E500041EA002000B230494880217CE07B41EA31
:100E6000002000B22C498880607C8871032000F04B
:100E7000E3F94AE000BF00BF00BF2078401E2749C9
:100E800008700846007800EB8000254931F8100012
:100E900000B22249097801EB8101214A02EB4101AC
:100EA0000881207BE17A40EA012000E02CE01B4928
:100EB000097801EB810122F81100A17B607B41EAF6
:100EC000002000B21549097801EB810102EB4101D4
:100ED0004880217CE07B41EA002000B20F4909787C
:100EE00001EB810102EB41018880607C0B490978AC
:100EF00001EB810102EB4101887108490978091D64
:100F0000C8B200F099F900E000BF00BF10BD0000BA
:100F1000E0040020EA040020F4040020C8000020BF
:100F2000FE0400200246002002EA01030BB101206A
:100F300000E000207047000010B51049104800F094
:100F400029F9C8B10D490E4800F022F801F0AAFFB6
:100F500002F0EEF901280FD00A490B48006802F0B0
:100F60000FF90848006838B14FF080500749086011
:100F7000BFF34F8FBFF36F8F10BD0000000800203C
:100F80008864024054010020D800002004ED00E0F5
:100F90000246094B9A4201D2084801E0064810383F
:100FA00001F000531BB1064B0B40C36002E0044B41
:100FB0000B408360704700001064024000600240F4
:100FC0007D0F7D0F21B1026842F00102026003E053
:100FD000026822F00102026070470000016821F0FF
:100FE000010101600021016041608160C160016117
:100FF000212141614A49884204D13D21484A103AA1
:1010000091608CE046491831884205D14FF47461F3
:10101000434A103A916082E041493031884205D11B
:101020004FF474113E4A103A916078E03C494831DF
:10103000884205D14FF07461394A103A91606EE0F0
:1010400037496031884204D13649354A103AD16077
:1010500065E033497831884204D13349304A103A47
:10106000D1605CE02E499031884204D12F492C4A4E
:10107000103AD16053E02A49A831884205D14FF097
:101080003D51274A103AD16049E02949884204D1AC
:101090003D21274A083A116041E02549183188422C
:1010A00005D14FF47461224A083A116037E02049B3
:1010B0003031884205D14FF474111D4A083A11604D
:1010C0002DE01B494831884205D14FF07461184A20
:1010D000083A116023E016496031884204D1114971
:1010E000134A121F11601AE011497831884204D165
:1010F0000D490F4A121F116011E00D4990318842CD
:1011000004D10A490A4A121F116008E00849A831AF
:10111000884204D14FF03D51054A121F11607047BB
:10112000106002403D000020400F002000003D20E4
:101130001064024021B1026842F48022026003E0A0
:10114000026822F480220260704722B1036843F4EF
:101150000023036003E0036823F4002303600161BC
:101160007047014600200A6802F001020AB101201E
:1011700000E0002070470146486880B27047014691
:1011800000200A6802F400220AB1012000E00020D9
:101190007047000030B503460A46002000240B4D7E
:1011A000AB4201D20A4901E00849103902F000556A
:1011B0000DB14C6800E00C68064D2C4004EA0205B5
:1011C0000DB1012000E0002030BD0000106402409D
:1011D000006002407D0F7D0F10B500220268134BA6
:1011E0001A40CC680B6823434C6923438C69234322
:1011F000CC6923430C6A23434C6A23438C6A234300
:101200004C6B23438C6B23431A430260426922F0E8
:101210000702D1E90B3423431A4342610B6943604F
:101220004B6883608B68C36010BD00003F801CF07A
:10123000416070477047000010B5044604EBC400DD
:10124000454901EB8000006804EBC401424A02EB0F
:101250008101486002F07CF804EBC4013E4A02EBD5
:101260008101086004EBC400114601EB8000C07CE2
:10127000C0F38010B0B104EBC40001EB8000C07C6F
:1012800020F0400004EBC40102EB8101C87404EBC0
:10129000C400114601EB8000006804EBC40102EBBE
:1012A0008101C86004EBC4002B4901EB8000806918
:1012B00090B304EBC401284A02EB8101886980479E
:1012C00058B304EBC400244901EB8000C07C20F03B
:1012D0002000203004EBC4011F4A02EB8101C874D6
:1012E00004EBC400114601EB8000C07C20F08000BC
:1012F000803004EBC40102EB8101C87404EBC4002C
:10130000114601EB8000006A28B304EBC40102EB34
:101310008101086A80471EE00FE0FFE704EBC4008C
:101320000D4901EB8000C07C20F0800004EBC4017B
:10133000094A02EB8101C8740DE004EBC4000649C0
:1013400001EB8000C07C20F0800004EBC401024A65
:1013500002EB8101C87410BD6405002010B54FF484
:10136000807000F011F840B14FF4807000F006F882
:1013700001F0A0FD172000F0F9FA10BD0149086046
:1013800070470000143C014001460020034A1268E7
:101390000A400AB1012000E000207047143C0140DF
:1013A000F0B50A4600210023002400BF3DE00125DE
:1013B00005FA01F3156805EA03049C4234D1056877
:1013C0004F000326BE40B543056015794E00B54079
:1013D0000668354305601579012D02D01579022D77
:1013E00016D185684F000326BE40B5438560557908
:1013F0004E00B540866835438560456801268E40BD
:10140000B5434560456896798E40B6B23543456030
:10141000C5684F000326BE40B543C560D5794E0070
:10142000B540C6683543C560491C1029BFD3F0BD1F
:10143000F0B5002300244D07ED0E02FA05F3CE109F
:1014400000F1200555F826504E07F70E0F26BE4036
:10145000B543CF1000F1200646F82750CE1000F11A
:10146000200555F8265045EA0304CE1000F120056A
:1014700045F82640F0BD418370470183704700BFA7
:10148000FEE7000070B506460C4615461548007884
:1014900038B3288888B9144890ED000A134880EDC5
:1014A000000A114890ED010A104880ED010A0E482B
:1014B00090ED020A0D4880ED020A0D4802782B4695
:1014C0000C490A4801F01EFC084890ED000A84ED22
:1014D000000A90ED010A84ED010A90ED020A84ED04
:1014E000020A70BD4C010020C8080020D40800206A
:1014F000A80800200809002091ED000A054A82EDA5
:10150000000A91ED010A82ED010A91ED020A82EDD5
:10151000020A7047C808002000BFFEE770470000BD
:1015200070B5002100230F22C4781CB3174C246827
:1015300004F4E064C4F5E064C4F30721C1F10404D9
:10154000E3B20A4144789C40E1B2847814402143DC
:101550000C07210E0E4C05786155047804F01F0528
:101560000124AC4005786D11AD0005F1E025C5F80A
:10157000004109E0047804F01F050124AC40054D4A
:101580000678761145F8264070BD00000CED00E0AD
:1015900000E400E080E100E002490143024A1160FA
:1015A000704700000000FA050CED00E029B1064A82
:1015B00012680243044B1A6004E0034A1268824333
:1015C000014B1A60704700003038024029B1064ACA
:1015D00012680243044B1A6004E0034A1268824313
:1015E000014B1A60704700004038024029B1064A9A
:1015F00012680243044B1A6004E0034A12688243F3
:10160000014B1A60704700002038024029B1064A99
:1016100012680243044B1A6004E0034A12688243D2
:10162000014B1A60704700004438024029B1064A55
:1016300012680243044B1A6004E0034A12688243B2
:10164000014B1A607047000024380240F0B50021B9
:1016500000220024022500260223324F3F6807F0B3
:101660000C0121B1042905D0082937D105E02E4FFE
:10167000076036E02D4F076033E02A4F3F1F3F6879
:10168000C7F38056274F3F1F3F6807F03F036EB1F7
:10169000264FB7FBF3F7DFF88CC0ACF1040CDCF895
:1016A00000C0CCF3881C07FB0CF40CE01E4FB7FB0A
:1016B000F3F7DFF870C0ACF1040CDCF800C0CCF339
:1016C000881C07FB0CF4174F3F1F3F68C7F3014707
:1016D0007F1C7D00B4FBF5F7076002E0124F076046
:1016E00000BF00BF0F4F3F6807F0F0010909104F1E
:1016F0007A5C0768D74047600A4F3F6807F4E051BB
:10170000890A0B4F7A5C4768D7408760054F3F686E
:1017100007F46041490B064F7A5C4768D740C760C1
:10172000F0BD0000083802400024F400001BB700A0
:101730001400002070B590B004460E4615460121F5
:101740004A48FFF733FF01211020FFF75FFF012117
:101750001020FFF76BFF00211020FFF767FF072223
:1017600011464348FFF764FE80200E9002208DF85A
:101770003C0000208DF83E0003208DF83D00002045
:101780008DF83F000EA93A48FFF70AFE394800F0ED
:10179000E7FC39480A900020ADF82C00ADF82E0087
:1017A0004FF48060ADF830000420ADF83200002026
:1017B000ADF834000AA92F4800F09AFD012240211B
:1017C0002C4800F0C4FC10212A4800F0ABFC012298
:1017D00040F22441274800F065FD0121254800F032
:1017E000AAFC25208DF83C0004208DF83D00002047
:1017F0008DF83E0001208DF83F000FA8FFF790FE06
:101800001E48FFF7EBFB4FF0006001901948001DE8
:101810000290039400200490059506904FF4806098
:1018200007900020089009904FF480700A904FF4C0
:1018300040300B9000200C900D900E900F9001A95D
:101840000E48FFF7C9FC002231460C48FFF77DFC2B
:1018500001210A48FFF76EFC00210848FFF7B2FBA0
:1018600001210648FFF7AEFB10B070BD020040003A
:101870000004024000100140A086010040640240C4
:1018800010B50021014800F056FC10BD00100140C9
:1018900000B101B970470278437842EA0322C2F3EB
:1018A0000A020A804278D210837842EA4312C2F3D5
:1018B0000A024A8082789211C37842EA830203794D
:1018C00042EA8322C2F30A028A80027952104379E3
:1018D00042EAC312C2F30A02CA804279C2F3011279
:1018E0008A72427912119308CB728279C37942EAE3
:1018F000032212B28A81027A437A42EA032213B2A5
:1019000001F10C02CB81827AC37A42EA032213B23C
:1019100001F10C020B82037B8B74437BCB74827BC3
:10192000C37B42EA03228A82027C437C42EA03228E
:1019300012B20A810A88A2F5806212B20A804A882D
:10194000A2F5806212B24A808A88A2F5806212B241
:101950008A80CA88A2F5806212B2CA800A89A2F57A
:10196000806212B20A8100BF94E7000010B50446FD
:1019700000211848FFF726FB002116481830FFF712
:1019800021FB00BF1348FFF7ECFB0028FAD100BF92
:1019900010481830FFF7E5FB0028F9D10E490D4833
:1019A0001830FFF7F5FA0D490A48FFF7F1FA21461A
:1019B0000848FFF73DFC214606481830FFF738FC81
:1019C000012104481830FFF7FDFA01210148FFF713
:1019D000F9FA10BD70640240000C002030000020B5
:1019E0000CB50020019000904148006840F4803020
:1019F0003F49086000BF3E48006800F40030009096
:101A00000198401C0190009818B90198B0F5A04FBA
:101A1000F1D13748006800F4003010B10120009087
:101A200001E0002000900098012860D1304840304B
:101A3000006840F080502E49403108602D48006811
:101A400040F440402B490860294808300068284984
:101A5000083108600846006840F400400860084605
:101A6000006840F4A05008602348091F0860081F60
:101A7000006840F08070091F086000BF1C480068C3
:101A800000F000700028F9D01A48006840F4803057
:101A90001849086000BF1748406800F480300028EB
:101AA000F9D01448006840F400301249086000BFC3
:101AB0001048406800F400300028F9D040F205706A
:101AC0000E4908600A480830006820F00300084901
:101AD000083108600846006840F00200086000BF56
:101AE00003480830006800F00C000828F8D10CBD4D
:101AF0000038024000700040062D4008003C0240C3
:101B0000042808D14FF0E021096941F004014FF0A9
:101B1000E022116107E04FF0E021096921F00401A2
:101B20004FF0E0221161704710B501F001FC01286F
:101B300001D001F0E3FB10BD10B51548006840F47A
:101B40007000134908601348006840F00100114913
:101B5000086000200F49083108600E4800680E49EF
:101B600008400C4908600D48091D0860081F0068FE
:101B700020F48020091F0860002006490C3108600D
:101B8000FFF72EFF4FF0006001498039086010BD5B
:101B900088ED00E000380240FFFFF6FE1030002420
:101BA00010B50121084800F053F960B10121064841
:101BB00000F068F8054802684068521C40F10000D7
:101BC00002490A60486010BD00040040D0000020B7
:101BD00010B50121064800F03BF938B10121044855
:101BE00000F050F80021024800F04FF810BD00004E
:101BF000001000407FB505460C4601211020FFF77C
:101C0000E5FC01211020FFF7F1FC00211020FFF777
:101C1000EDFC154800F054F8681E0290601E80B27A
:101C2000ADF804000020ADF80600ADF80C0001A9E5
:101C30000D4800F0BDF9012211460B4800F019F9DA
:101C400036208DF8000004208DF8010000208DF86A
:101C5000020001208DF803006846FFF761FC0121B6
:101C6000014800F012F87FBD0010004021B1028849
:101C700042F08002028004E002884FF67F731A402F
:101C800002807047CA430282704721B1028842F045
:101C90000102028004E002884FF6FE731A400280BF
:101CA000704731B1B0F8442042F40042A0F844201B
:101CB00005E0B0F84420C2F30E02A0F844207047BB
:101CC00010B504465548844208D101210846FFF763
:101CD000ADFC00210120FFF7A9FC9DE0B4F1804F8D
:101CE00008D101210846FFF781FC00210120FFF700
:101CF0007DFC91E04A48844208D101210220FFF78F
:101D000075FC00210220FFF771FC85E04548844204
:101D100008D101210420FFF769FC00210420FFF70E
:101D200065FC79E04048844208D101210820FFF792
:101D30005DFC00210820FFF759FC6DE03B48844220
:101D400008D101211020FFF751FC00211020FFF7DE
:101D50004DFC61E03648844208D101212020FFF784
:101D600045FC00212020FFF741FC55E0314884422A
:101D700008D101210220FFF759FC00210220FFF7C2
:101D800055FC49E02C48844209D101210804FFF7A1
:101D90004DFC00214FF48030FFF748FC3CE0274821
:101DA000844209D101214804FFF740FC00214FF48F
:101DB0000030FFF73BFC2FE02148844209D101218C
:101DC0008804FFF733FC00214FF48020FFF72EFC3E
:101DD00022E01C48844208D101214020FFF706FC84
:101DE00000214020FFF702FC16E01748844208D18A
:101DF00001218020FFF7FAFB00218020FFF7F6FB8E
:101E00000AE01248844207D101218015FFF7EEFB5A
:101E10000021A015FFF7EAFB10BD00000000014003
:101E20000004004000080040000C0040001000408A
:101E30000014004000040140004001400044014003
:101E40000048014000180040001C004000200040F5
:101E500030B50246002000230024158A05EA01035C
:101E6000958905EA010413B10CB1012000E00020BE
:101E700030BD1AB183890B43838102E083898B4390
:101E80008381704770B5002400220023058C4FF633
:101E9000FE7635400584028C8388048B4FF68F755F
:101EA0002C40B51E2C400D882C43751E2A408D8970
:101EB0002A434D882A43104DA84202D00F4DA84214
:101EC00013D14FF6F7752A40CD892A434FF6FB759B
:101ED0002A408D882A434FF6FF652B404FF6FF5569
:101EE0002B400D8A2B434D8A2B43838004838D68BE
:101EF0004563028470BD0000000001400004014001
:101F00000A460021018B4FF6F773194011430183F4
:101F10007047000070B5002200230024058C4EF6A7
:101F2000FF7635400584038C8488828B48F6FF75E4
:101F30002A404FF6FF452A400D884FF6FF7606EA05
:101F400005252A434DF6FF752B408D8906EA053598
:101F50002B434D8806EA05352B430A4DA84202D093
:101F6000094DA84208D14BF6FF752C400D8A4FF65B
:101F7000FF7606EA85152C43848082838D6805648C
:101F8000038470BD00000140000401400A460021A6
:101F9000818B4FF2FF7319404FF6FF7303EA022360
:101FA00019438183704741637047016470470000A3
:101FB00000220288184B98420ED0184B98420BD042
:101FC000B0F1804F08D0164B984205D0154B98427F
:101FD00002D0154B984204D14FF68F731A404B88AC
:101FE0001A43124B984207D0114B984204D04FF637
:101FF000FF431A400B891A4302804B68C3620B8867
:102000000385054B984202D0044B984201D18B7A4C
:1020100003860123838270470000014000040140D1
:102020000004004000080040000C00400010004088
:102030000014004010B540F22551344800F008F972
:1020400018B1324800F0BEF95FE040F224412F4859
:1020500000F0FEF8002858D02C4800F0B3F92C48C6
:10206000FFF78DF840BB00212948FEF7ABFF284859
:10207000FFF781F8C0F12400264908802421244874
:10208000FFF7D6F82248006840F400202049086095
:1020900021491F48FEF77CFF01211D48FEF792FFF2
:1020A0001C480088122830D11C491D48FFF7F0FB5E
:1020B0000020FFF7C1F828E000211548FEF782FF55
:1020C0001348FFF758F8C0F1240012490880242172
:1020D0000F48FFF7ADF80E48006820F400200C49C7
:1020E00008600D490A48FEF753FF01210848FEF732
:1020F00069FF08480088122807D108490848243099
:10210000FFF7C6FB0020FFF797F810BD0010014055
:10211000406402405801002000003010B409002043
:10212000CA09002001F40072B2F5007F00D100BF9F
:10213000CA430280704721B1828942F400528281F1
:1021400004E082894DF6FF731A40828170471AB10C
:10215000838A0B43838202E0838A8B4383827047A6
:1021600010B504463248844208D101211020FFF7FF
:102170005DFA00211020FFF759FA57E02D488442FC
:1021800009D101214804FFF731FA00214FF4003052
:10219000FFF72CFA4AE02848844209D1012188043B
:1021A000FFF724FA00214FF48020FFF71FFA3DE0EB
:1021B0002248844209D10121C804FFF717FA0021FF
:1021C0004FF40020FFF712FA30E01D48844209D195
:1021D00001210805FFF70AFA00214FF48010FFF7EC
:1021E00005FA23E01748844208D101212020FFF797
:1021F0001DFA00212020FFF719FA17E01248844247
:1022000009D101218807FFF7F1F900214FF0804043
:10221000FFF7ECF90AE00D48844207D1012140059F
:10222000FFF7E4F900216005FFF7E0F910BD0000B9
:10223000001001400044004000480040004C0040B5
:10224000005000400014014000780040007C004035
:1022500070B50246002400230025002040F66A16CF
:10226000B14200D100BFC1F3421501F01F030126A6
:1022700006FA03F3012D02D19689334006E0022DC0
:1022800002D1168A334001E0968A33400C120126AF
:1022900006FA04F41688344013B10CB1012000E0B2
:1022A000002070BDF0B50346002400260025002064
:1022B00040F66A17B94200D100BF1846C1F3421474
:1022C00001F01F06012707FA06F5012C01D10C3099
:1022D00004E0022C01D1103000E014301AB107687C
:1022E0002F43076002E00768AF430760F0BD0000BE
:1022F0002DE9FF4705460E460024A14600BFA04633
:10230000B08900B100BF2C8A24F44054F088044303
:102310002C82AC8941F20C608443B0883189084337
:10232000718908430443AC81AC8A24F44074B089B9
:102330000443AC826846FFF789F92048854202D001
:102340001F48854202D1DDF80C9001E0DDF80890CD
:10235000A88900F4004040B109EBC90000EB091066
:1023600031684900B0FBF1F707E009EBC90000EB69
:10237000091031688900B0FBF1F76420B7FBF0F079
:1023800004012009642101FB1078A88900F40040B1
:1023900040B1322000EBC800B0FBF1F000F00700C4
:1023A000044308E0322000EB08106421B0FBF1F098
:1023B00000F00F0004432C81BDE8FF8700100140AE
:1023C0000014014001468888C0F308007047C1F33B
:1023D00008028280704700BFFEE7000030B58BB076
:1023E00005460C4601214020FFF7F0F8012180202E
:1023F000FFF7DCF801214020FFF7F8F8002140202A
:10240000FFF7F4F8092206212048FFF711F84020D1
:10241000099002208DF8280003208DF82900002063
:102420008DF82A0002208DF82B0009A91748FEF725
:10243000B7FF6020ADF804000120ADF806000020D1
:10244000ADF8100001A91248FFF71CFD0821104843
:10245000FFF756FD01210E48FFF708FC681E0790A4
:10246000601E80B2ADF818000020ADF81A00ADF87B
:10247000200006A90648FFF79BFD01210448FFF74D
:1024800004FC00F007F80BB030BD0000001C024057
:102490000018004010B500210148FFF784FD10BD71
:1024A0000018004070B504460D46044804802946D3
:1024B00002482838FFF777FD70BD0000281800405B
:1024C0002DE9F05F0546884691469A46DDF828B02A
:1024D0007DB1B8F1000F0CD0B9F1000F09D0BAF1FD
:1024E000000F06D0BBF1000F03D00B9808B10C9879
:1024F00008B9BDE8F09F002600270024288A698AD1
:10250000401A04B2002C03DA41F6FF70204404B2F2
:10251000204604EBD0712A8AA2EB61010CB2B4F51B
:10252000005F04DBA4F5F850FF3804B205E0002C8E
:1025300003DA41F6FF70204404B2A8F80040B8F86E
:102540000010288A00F094FC8AED000AB8F8001008
:10255000688A00F08DFC8BED000A95ED020ADFED34
:10256000370A80EE201ABDEEC10A10EE100A04B23E
:10257000A88A001B06B295ED030ADFED300A80EE53
:10258000201ABDEEC10A10EE100A04B2E88A001B40
:1025900007B2B6F5005F04DBA6F5F850FF3806B2C7
:1025A00005E0002E03DA41F6FF70304406B2B7F5BD
:1025B000005F04DBA7F5F850FF3807B205E0002FF5
:1025C00003DA41F6FF70384407B2F01B04B2B4F5E9
:1025D000805F04DDA4F5F850FF3804B206E014F57E
:1025E000805F03DA41F6FF70204404B2204604EB1A
:1025F000D071A6EB61010CB2B4F5005F04DBA4F569
:10260000F850FF3804B205E0002C03DA41F6FF7001
:10261000204404B2A9F80040B9F80010A88A00F0DC
:1026200027FC0B9880ED000AB9F80010E88A00F04A
:102630001FFC0C9880ED000A00BF5AE7DB0F493AF7
:10264000F8B50024002500BF69E03649681801226A
:10265000694600F041FA9DF8000004EB840101EBAB
:10266000C401314A50549DF8010004EB840101EB90
:10267000C401114448709DF8020004EB840101EB91
:10268000C401114488709DF8030004EB840101EB40
:10269000C4011144C870281D85B204EB840303EB08
:1026A000C403164633441B7903F07F0204EB840312
:1026B00003EBC4033344D3F805101A4BE81800F0B9
:1026C0000BFA04EB840000EBC400314608440079A7
:1026D00000F07F0005EB800085B204EB840000EB86
:1026E000C4000844C078552817D004EB840000EBE0
:1026F000C4000844D0F8090078B104EB840000EB72
:10270000C4000844007920F08000803004EB84018C
:1027100001EBC401324611440871601CC4B2052C9F
:1027200093DBF8BD00001E089C0400207CB5064623
:102730000D463446ADB994ED042AF0EE421A94EDFC
:10274000032AB0EE421A94ED022AF0EE420A94ED0A
:10275000012AB0EE420A6188208800F01BFC0020AC
:102760007CBD012D16D104F11000011F0B1F221D8D
:10277000CDE90010A11C204600F0C2F818B1FFF707
:1027800089FE0120ECE744F620611F20FFF78AFE56
:102790000020E5E70020E3E770B506460C46354625
:1027A00034B9294605F10C00FEF7A6FE002070BDE5
:1027B000012C1BD10E4A294605F10C00FEF762FEE2
:1027C0000B48008844F62061884206DD0020084955
:1027D0000880FFF75FFE0120E9E7FFF751F842F2BA
:1027E00010715F20FFF75EFE0020E0E70020DEE7CB
:1027F000C600002070B505460C460CB9012070BD1E
:1028000000200F49087000F04FFABDEEC00A10EE2C
:10281000100A0A3040B20A494870084690F901008F
:102820002D2801DD2D20487043F2390004494880ED
:102830009FED040A10EE100A48600120DFE7000057
:102840007C000020DF8FB44110B5002400BF26E0DB
:102850002748015D04EB840000EBC400254A1044C6
:10286000007961F3060004EB840101EBC40111441B
:102870000871214850F8240004EB840101EBC401E5
:102880001144C1F805001D4850F8240004EB8401F0
:1028900001EBC4011144C1F80900601CC4B2052C4D
:1028A000D6DBFFF7CDFE00241FE004EB840000EB35
:1028B000C40010490844C078552814D104EB8400A2
:1028C00000EBC4000844D0F8090060B10A4951F88F
:1028D000240004EB840101EBC401064B1944D1F838
:1028E000092000219047601CC4B2052CDDDB10BD1F
:1028F000980000209C04002084000020A0000020FC
:102900002DE9FE4304460D4616461F46DDE90A89B9
:102910002C4890F8E40160BB01212A4880F8E411BA
:1029200090ED6B0A80ED750AD0F8EC00018825481F
:10293000A0F8E01190ED330A80ED730AC0680188B9
:102940002048A0F8DC1190ED6B0A80ED760AD0F8F3
:10295000EC0001881B48A0F8E21190ED330A80EDED
:10296000740AC06801881748A0F8DE110020BDE88D
:10297000FE83144890F8E401052820D133462A4606
:10298000214611488DE88003FFF79AFD21880D4804
:10299000A0F8BA1096ED000A80ED2F0A97ED000A14
:1029A00080ED300A2988A0F89A1198ED000A80ED90
:1029B000670A99ED000A80ED680A0120D7E7002038
:1029C000D5E70000A80600207408002070B5044672
:1029D0000025681FFFF794F8134800681349B0FBFF
:1029E000F1F013490870104800684FF4FA51B0FB39
:1029F000F1F0104908600CB94FF47A740A48006885
:102A0000B0FBF4F0C5086D1E4FF0E020006940F007
:102A100002004FF0E021086108464561006940F07E
:102A20000100086170BD00000000002000127A0063
:102A30006C0000207000002070B5034600240021C7
:102A40000020002200254FF0E02675690D4E366803
:102A500003FB06F44FF0E026B16910E04FF0E026EA
:102A6000B06988420BD0884202D20E1A324402E08A
:102A70002E1A0E4432440146A24200D300E0EDE794
:102A800000BF70BD7000002070B503460024002117
:102A90000020002200254FF0E02675690D4E3678A3
:102AA00003FB06F44FF0E026B16910E04FF0E0269A
:102AB000B06988420BD0884202D20E1A324402E03A
:102AC0002E1A0E4432440146A24200D300E0EDE744
:102AD00000BF70BD6C00002038B500230024044600
:102AE00000BF06E025680095009D0D60241D091DAE
:102AF0005B1C9342F6D338BD10B504464FF480708A
:102B000040FA04F10148FEF7B8FC10BD001802407D
:102B100000B58BB001210846FEF748FD01211020C9
:102B2000FEF744FD01210846FEF770FD0122082151
:102B30004448FEF77DFC01220E214348FEF778FC55
:102B40004FF48070099002208DF8280000208DF845
:102B500029008DF82A008DF82B0009A93948FEF7C5
:102B60001FFC4FF48040099009A93748FEF718FC74
:102B700001210846FEF75AFD00210120FEF756FD0F
:102B800040F2CF700790B320ADF818000020ADF8E8
:102B90001A00ADF8200006A92C48FFF709FA6020BA
:102BA000ADF804000120ADF806000020ADF81000DB
:102BB000ADF808000820ADF812004001ADF814008F
:102BC0000020ADF816004FF47A70039001A91F4859
:102BD000FFF758F901A91D48FFF79CF908211B4888
:102BE000FFF78EF908211948FFF7D0F9012117489E
:102BF000FFF73CF801211548FFF753F8012113486E
:102C0000FFF743F800F026F801212020FEF7CEFC64
:102C10004FF48060099000208DF828008DF82A007C
:102C200003208DF8290001208DF82B0009A9084800
:102C3000FEF7B6FB4FF480610548FEF71EFC0BB0B3
:102C400000BD0000000002400010024000000140F2
:102C50000014024010B54FF47A710448FFF7A3F94D
:102C60004FF47A710148FFF7A0F910BD0000014050
:102C700010B5044632210B48FDF7C5FB01231A4667
:102C800021460848FDF71EFC0648FDF777FC00BF0B
:102C900002210448FDF7E2FB0028F9D00148FDF7C6
:102CA000D9FB10BD0020014010B52DED028B002096
:102CB00008EE900A00F07EF91220FFF7D9FF08EE27
:102CC000900AB8EE680ADFED0C0A20EE200AB0EE9A
:102CD000408A9FED0A0A38EE400ADFED090A80EECD
:102CE000201AB3EE090A31EE000AB0EE408AB0EEC7
:102CF000480ABDEC028B10BD3333533A5C8F423F20
:102D00000AD7233B10B508B101B103B910BD02F0D9
:102D1000020414B100241C80F8E702F0010404B39B
:102D200090ED000AD1ED000A9FED0F1A01EE600A46
:102D300080ED000A90ED010AD1ED010A9FED0A1A1B
:102D400001EE600A80ED010A90ED020AD1ED020A5F
:102D50009FED051A01EE600A80ED020A1C88641CD2
:102D60001C8000BFD2E7000052499D391CB50121EB
:102D70004020FEF71BFC4FF40050009001208DF81E
:102D8000040000208DF8060003208DF805000120C6
:102D90008DF8070069460348FEF702FB00F004F8CF
:102DA0001CBD00000018024010B54FF4005102484D
:102DB000FEF763FB10BD0000001802401CB50121A6
:102DC0007020FEF7F3FB4FF48040009001208DF857
:102DD000040000208DF8060003208DF80500012076
:102DE0008DF8070069460D48FEF7DAFA4FF40060E7
:102DF000009069460A48FEF7D3FA00F015F800F093
:102E00001DF84FF4FF70009069460648FEF7C8FAB7
:102E10004FF4FF70FFF770FE1CBD0000001402406D
:102E2000001002400018024010B54FF480410248E3
:102E3000FEF723FB10BD00000014024010B54FF454
:102E400000610248FEF719FB10BD000000100240AF
:102E5000FDF7B0FB6420FFF7EFFD00F0EBF87B24FB
:102E600003E021460148FFF7B2FAFAE700140140F7
:102E70000246501AB0F5805F03DDA0F5F850FF3828
:102E800005E010F5805F02DA41F6FF73184400EEAA
:102E9000100AB8EEC00ADFED020A20EE200A7047E1
:102EA000DB0F493A10B540210148FEF7E6FA10BDA4
:102EB0000014024010B540210148FEF7DCFA10BDB5
:102EC000001402401CB501218020FEF76FFB3C205E
:102ED000009001208DF8040000208DF806000320EA
:102EE0008DF8050001208DF8070069460648FEF7B9
:102EF00057FA002404E0204600F008F8601CC4B231
:102F0000042CF8DB1CBD0000001C024010B5044678
:102F1000032C00DD10BD0420A04081B20248FEF762
:102F2000AAFA00BFF6E70000001C024010B50446F4
:102F3000032C00DD10BD0420A04081B20248FEF742
:102F40009CFA00BFF6E70000001C02400A4909682D
:102F5000096809B9012100E0002121B14FF0FF31DA
:102F6000064A116006E004490968C968C868034A4E
:102F700041681160704700002800002054000020C4
:102F800010B524220249A1F12400FEF7D3FB10BDA5
:102F9000EE090020064AA2F8BA0082ED2F0AC2ED1F
:102FA000300AA2F89A1182ED671AC2ED681A7047CA
:102FB000A806002000B587B0002001908DF8080019
:102FC0008DF809000390059001208DF8180001A9E3
:102FD0000248FDF74DFA07B000BD00000020014097
:102FE0001FB501210802FEF711FB01210802FEF7BF
:102FF0001DFB00214FF48070FEF718FB0120FDF748
:10300000C3FA00200090039002904FF480300190AA
:103010006846FDF707FAFFF7CDFF01231A46122194
:103020000348FDF74FFA01210148FDF7EFF91FBDF5
:103030000020014000B587B001214020FEF7B6FA1C
:1030400001212020FEF7E2FA08220E211C48FEF79B
:10305000EFF9082209211A48FEF7EAF94FF48440F3
:10306000059002208DF8180000208DF81A0003202A
:103070008DF8190000208DF81B0005A91048FEF7F7
:103080008FF91048FFF76CF84FF4165001900020AC
:10309000ADF80800ADF80A004FF48060ADF80C0000
:1030A0000C20ADF80E000020ADF8100001A9054875
:1030B000FFF71EF901210348FFF73DF807B000BDF7
:1030C000001802400014014001460A69D1E90130AC
:1030D0009860D1E9010358605068884201D188683E
:1030E0005060002008611068401E10601068704732
:1030F00042684A6093688B60936859609160086188
:1031000003685B1C0360704770B5FDF717F9044650
:10311000102C16D304F1E02090F8F05315480078F5
:10312000854201DB012000E0002050B900BF5020A3
:1031300080F31188BFF34F8FBFF36F8F00BF00BFC5
:10314000FEE70D48006800F4E0600C490968884219
:1031500001D8012000E0002050B900BF502080F3CA
:103160001188BFF34F8FBFF36F8F00BF00BFFEE723
:1031700070BD0000640000200CED00E0680000203D
:103180002DE9F04105460F4655B900BF502080F3A8
:103190001188BFF34F8FBFF36F8F00BF00BFFEE7F3
:1031A000FFF7B2FF2C4600BF5021EFF3118081F3EF
:1031B0001188BFF34F8FBFF36F8F00BF064694F89F
:1031C0005880022084F85800606D401C6065B8F19A
:1031D000010F3BD1A06A08B9012000E0002050B9DE
:1031E00000BF502080F31188BFF34F8FBFF36F8F64
:1031F00000BF00BFFEE718480068A8B9201DFFF710
:1032000063FF94F82C100120884014490968084392
:1032100012490860E16A01EB8101114A02EB810069
:10322000211DFFF765FF04E004F118010D48FFF7C9
:103230005FFF0D49E06A0968C96A884206D917B17B
:103240000120386002E001200849086000BF86F3D1
:10325000118800BFBDE8F0815C0000203C00002028
:103260005C0100200404002024000020480000200D
:103270001D48006818B101201C49086032E0002098
:103280001A4908601A480068B0FA80F0C0F11F01BE
:1032900001EB8100174A52F8200008B1012000E03C
:1032A000002050B900BF502080F31188BFF34F8F2A
:1032B000BFF36F8F00BF00BFFEE701EB81020D4B34
:1032C00003EB820042685268426000F108024368E2
:1032D000934202D14268526842604268D268064B0B
:1032E0001A6000BF704700005C000020480000200A
:1032F0003C0000205C0100202400002010B500BF2D
:10330000502080F31188BFF34F8FBFF36F8F00BF42
:1033100000F024F818B14FF080500449086000BF55
:10332000002080F3118800BF10BD000004ED00E014
:103330000549096809B9012005E00449096809B986
:10334000022000E000207047400000205C000020C8
:103350000149086870470000380000202DE9F0415D
:103360004FF0000844480068002877D143480068BF
:10337000451C4248056015BB41480068006808B913
:10338000012000E0002050B900BF502080F31188D8
:10339000BFF34F8FBFF36F8F00BF00BFFEE738480A
:1033A000076838480068364908603648076036487C
:1033B0000068401C34490860FFF7C8FD00BF33486F
:1033C000006885423CD300BF2D480068006808B9FA
:1033D000012000E0002020B14FF0FF302B490860B1
:1033E0002DE027480068C068C4686668B54202D20C
:1033F0002648066023E0201DFFF766FEA06A18B18C
:1034000004F11800FFF760FE94F82C1001208840AA
:103410001F49096808431E490860E16A01EB810100
:103420001C4A02EB8100211DFFF762FE1A49E06A87
:103430000968C96A8842C7D34FF00108C4E700BFD2
:1034400015480068C06A00EB8000124951F820005E
:10345000012801D94FF0010805E0FFE70F48006897
:10346000401C0E4908600E48006808B14FF0010882
:103470004046BDE8F08100005C00002038000020DC
:10348000280000202C0000204C00002054000020C8
:103490003C0000205C0100202400002044000020AB
:1034A000480000204FF00000E1EE100A70470000D5
:1034B000D0340008000000205C010000E801000892
:1034C000203500085C0100201C0D000044020008AB
:1034D000118495BA0A680901020304060708090C59
:1034E000A91001381AAA010120227C142040041BD3
:1034F0002054041A6C041A840436020506060613C6
:10350000F5271B082D041A9904013A5B803F080A2D
:1035100019BF1C091D246920E93809161021000073
:04000005080001AD41
:00000001FF
